{"abi":[{"type":"constructor","inputs":[{"name":"_name","type":"string","internalType":"string"},{"name":"_symbol","type":"string","internalType":"string"}],"stateMutability":"nonpayable"},{"type":"receive","stateMutability":"payable"},{"type":"function","name":"Owner","inputs":[],"outputs":[{"name":"","type":"address","internalType":"address"}],"stateMutability":"view"},{"type":"function","name":"allowance","inputs":[{"name":"owner","type":"address","internalType":"address"},{"name":"spender","type":"address","internalType":"address"}],"outputs":[{"name":"","type":"uint256","internalType":"uint256"}],"stateMutability":"view"},{"type":"function","name":"approve","inputs":[{"name":"spender","type":"address","internalType":"address"},{"name":"value","type":"uint256","internalType":"uint256"}],"outputs":[{"name":"","type":"bool","internalType":"bool"}],"stateMutability":"nonpayable"},{"type":"function","name":"asset","inputs":[],"outputs":[{"name":"","type":"address","internalType":"address"}],"stateMutability":"view"},{"type":"function","name":"balanceOf","inputs":[{"name":"account","type":"address","internalType":"address"}],"outputs":[{"name":"","type":"uint256","internalType":"uint256"}],"stateMutability":"view"},{"type":"function","name":"convertToAssets","inputs":[{"name":"shares","type":"uint256","internalType":"uint256"}],"outputs":[{"name":"","type":"uint256","internalType":"uint256"}],"stateMutability":"view"},{"type":"function","name":"convertToShares","inputs":[{"name":"assets","type":"uint256","internalType":"uint256"}],"outputs":[{"name":"","type":"uint256","internalType":"uint256"}],"stateMutability":"view"},{"type":"function","name":"decimals","inputs":[],"outputs":[{"name":"","type":"uint8","internalType":"uint8"}],"stateMutability":"view"},{"type":"function","name":"deposit","inputs":[{"name":"assets","type":"uint256","internalType":"uint256"},{"name":"receiver","type":"address","internalType":"address"}],"outputs":[{"name":"","type":"uint256","internalType":"uint256"}],"stateMutability":"payable"},{"type":"function","name":"maxDeposit","inputs":[{"name":"","type":"address","internalType":"address"}],"outputs":[{"name":"","type":"uint256","internalType":"uint256"}],"stateMutability":"view"},{"type":"function","name":"maxMint","inputs":[{"name":"","type":"address","internalType":"address"}],"outputs":[{"name":"","type":"uint256","internalType":"uint256"}],"stateMutability":"view"},{"type":"function","name":"maxRedeem","inputs":[{"name":"owner","type":"address","internalType":"address"}],"outputs":[{"name":"","type":"uint256","internalType":"uint256"}],"stateMutability":"view"},{"type":"function","name":"maxWithdraw","inputs":[{"name":"owner","type":"address","internalType":"address"}],"outputs":[{"name":"","type":"uint256","internalType":"uint256"}],"stateMutability":"view"},{"type":"function","name":"mint","inputs":[{"name":"shares","type":"uint256","internalType":"uint256"},{"name":"receiver","type":"address","internalType":"address"}],"outputs":[{"name":"","type":"uint256","internalType":"uint256"}],"stateMutability":"payable"},{"type":"function","name":"name","inputs":[],"outputs":[{"name":"","type":"string","internalType":"string"}],"stateMutability":"view"},{"type":"function","name":"previewDeposit","inputs":[{"name":"assets","type":"uint256","internalType":"uint256"}],"outputs":[{"name":"","type":"uint256","internalType":"uint256"}],"stateMutability":"view"},{"type":"function","name":"previewMint","inputs":[{"name":"shares","type":"uint256","internalType":"uint256"}],"outputs":[{"name":"","type":"uint256","internalType":"uint256"}],"stateMutability":"view"},{"type":"function","name":"previewRedeem","inputs":[{"name":"shares","type":"uint256","internalType":"uint256"}],"outputs":[{"name":"","type":"uint256","internalType":"uint256"}],"stateMutability":"view"},{"type":"function","name":"previewWithdraw","inputs":[{"name":"assets","type":"uint256","internalType":"uint256"}],"outputs":[{"name":"","type":"uint256","internalType":"uint256"}],"stateMutability":"view"},{"type":"function","name":"redeem","inputs":[{"name":"shares","type":"uint256","internalType":"uint256"},{"name":"receiver","type":"address","internalType":"address"},{"name":"owner","type":"address","internalType":"address"}],"outputs":[{"name":"","type":"uint256","internalType":"uint256"}],"stateMutability":"nonpayable"},{"type":"function","name":"setOwner","inputs":[{"name":"newOwner","type":"address","internalType":"address"}],"outputs":[],"stateMutability":"nonpayable"},{"type":"function","name":"symbol","inputs":[],"outputs":[{"name":"","type":"string","internalType":"string"}],"stateMutability":"view"},{"type":"function","name":"totalAssets","inputs":[],"outputs":[{"name":"","type":"uint256","internalType":"uint256"}],"stateMutability":"view"},{"type":"function","name":"totalSupply","inputs":[],"outputs":[{"name":"","type":"uint256","internalType":"uint256"}],"stateMutability":"view"},{"type":"function","name":"transfer","inputs":[{"name":"to","type":"address","internalType":"address"},{"name":"value","type":"uint256","internalType":"uint256"}],"outputs":[{"name":"","type":"bool","internalType":"bool"}],"stateMutability":"nonpayable"},{"type":"function","name":"transferETH","inputs":[{"name":"assets","type":"uint256","internalType":"uint256"},{"name":"receiver","type":"address","internalType":"address"}],"outputs":[{"name":"","type":"bool","internalType":"bool"}],"stateMutability":"nonpayable"},{"type":"function","name":"transferFrom","inputs":[{"name":"from","type":"address","internalType":"address"},{"name":"to","type":"address","internalType":"address"},{"name":"value","type":"uint256","internalType":"uint256"}],"outputs":[{"name":"","type":"bool","internalType":"bool"}],"stateMutability":"nonpayable"},{"type":"function","name":"withdraw","inputs":[{"name":"assets","type":"uint256","internalType":"uint256"},{"name":"receiver","type":"address","internalType":"address"},{"name":"owner","type":"address","internalType":"address"}],"outputs":[{"name":"","type":"uint256","internalType":"uint256"}],"stateMutability":"nonpayable"},{"type":"event","name":"Approval","inputs":[{"name":"owner","type":"address","indexed":true,"internalType":"address"},{"name":"spender","type":"address","indexed":true,"internalType":"address"},{"name":"value","type":"uint256","indexed":false,"internalType":"uint256"}],"anonymous":false},{"type":"event","name":"Deposit","inputs":[{"name":"sender","type":"address","indexed":true,"internalType":"address"},{"name":"owner","type":"address","indexed":true,"internalType":"address"},{"name":"assets","type":"uint256","indexed":false,"internalType":"uint256"},{"name":"shares","type":"uint256","indexed":false,"internalType":"uint256"}],"anonymous":false},{"type":"event","name":"Transfer","inputs":[{"name":"from","type":"address","indexed":true,"internalType":"address"},{"name":"to","type":"address","indexed":true,"internalType":"address"},{"name":"value","type":"uint256","indexed":false,"internalType":"uint256"}],"anonymous":false},{"type":"event","name":"Withdraw","inputs":[{"name":"sender","type":"address","indexed":true,"internalType":"address"},{"name":"receiver","type":"address","indexed":true,"internalType":"address"},{"name":"owner","type":"address","indexed":true,"internalType":"address"},{"name":"assets","type":"uint256","indexed":false,"internalType":"uint256"},{"name":"shares","type":"uint256","indexed":false,"internalType":"uint256"}],"anonymous":false},{"type":"error","name":"ERC20InsufficientAllowance","inputs":[{"name":"spender","type":"address","internalType":"address"},{"name":"allowance","type":"uint256","internalType":"uint256"},{"name":"needed","type":"uint256","internalType":"uint256"}]},{"type":"error","name":"ERC20InsufficientBalance","inputs":[{"name":"sender","type":"address","internalType":"address"},{"name":"balance","type":"uint256","internalType":"uint256"},{"name":"needed","type":"uint256","internalType":"uint256"}]},{"type":"error","name":"ERC20InvalidApprover","inputs":[{"name":"approver","type":"address","internalType":"address"}]},{"type":"error","name":"ERC20InvalidReceiver","inputs":[{"name":"receiver","type":"address","internalType":"address"}]},{"type":"error","name":"ERC20InvalidSender","inputs":[{"name":"sender","type":"address","internalType":"address"}]},{"type":"error","name":"ERC20InvalidSpender","inputs":[{"name":"spender","type":"address","internalType":"address"}]},{"type":"error","name":"ERC4626ExceededMaxDeposit","inputs":[{"name":"receiver","type":"address","internalType":"address"},{"name":"assets","type":"uint256","internalType":"uint256"},{"name":"max","type":"uint256","internalType":"uint256"}]},{"type":"error","name":"ERC4626ExceededMaxMint","inputs":[{"name":"receiver","type":"address","internalType":"address"},{"name":"shares","type":"uint256","internalType":"uint256"},{"name":"max","type":"uint256","internalType":"uint256"}]},{"type":"error","name":"ERC4626ExceededMaxRedeem","inputs":[{"name":"owner","type":"address","internalType":"address"},{"name":"shares","type":"uint256","internalType":"uint256"},{"name":"max","type":"uint256","internalType":"uint256"}]},{"type":"error","name":"ERC4626ExceededMaxWithdraw","inputs":[{"name":"owner","type":"address","internalType":"address"},{"name":"assets","type":"uint256","internalType":"uint256"},{"name":"max","type":"uint256","internalType":"uint256"}]},{"type":"error","name":"MathOverflowedMulDiv","inputs":[]}],"bytecode":{"object":"0x60a060405260126080523480156200001657600080fd5b50604051620015813803806200158183398101604081905262000039916200013e565b8181600362000049838262000239565b50600462000058828262000239565b5050600580546001600160a01b031916331790555062000305915050565b634e487b7160e01b600052604160045260246000fd5b600082601f8301126200009e57600080fd5b81516001600160401b0380821115620000bb57620000bb62000076565b604051601f8301601f19908116603f01168101908282118183101715620000e657620000e662000076565b81604052838152602092508660208588010111156200010457600080fd5b600091505b8382101562000128578582018301518183018401529082019062000109565b6000602085830101528094505050505092915050565b600080604083850312156200015257600080fd5b82516001600160401b03808211156200016a57600080fd5b62000178868387016200008c565b935060208501519150808211156200018f57600080fd5b506200019e858286016200008c565b9150509250929050565b600181811c90821680620001bd57607f821691505b602082108103620001de57634e487b7160e01b600052602260045260246000fd5b50919050565b601f82111562000234576000816000526020600020601f850160051c810160208610156200020f5750805b601f850160051c820191505b8181101562000230578281556001016200021b565b5050505b505050565b81516001600160401b0381111562000255576200025562000076565b6200026d81620002668454620001a8565b84620001e4565b602080601f831160018114620002a557600084156200028c5750858301515b600019600386901b1c1916600185901b17855562000230565b600085815260208120601f198616915b82811015620002d657888601518255948401946001909101908401620002b5565b5085821015620002f55787850151600019600388901b60f8161c191681555b5050505050600190811b01905550565b60805161126062000321600039600061068801526112606000f3fe6080604052600436106101bb5760003560e01c806370a08231116100ec578063ba0876521161008a578063ce96cb7711610064578063ce96cb7714610493578063d905777e146104b3578063dd62ed3e146104d3578063ef8b30f71461047357600080fd5b8063ba08765214610453578063c63d75b614610320578063c6e6f5921461047357600080fd5b8063a9059cbb116100c6578063a9059cbb146103d3578063b3d7f6b9146103f3578063b460af9414610413578063b4a99a4e1461043357600080fd5b806370a082311461037557806394bf804d146103ab57806395d89b41146103be57600080fd5b806323b872dd11610159578063402d267d11610133578063402d267d146103205780634cdad5061461020b5780636e07c470146103425780636e553f651461036257600080fd5b806323b872dd146102b2578063313ce567146102d257806338d52e0f146102f957600080fd5b8063095ea7b311610195578063095ea7b31461022b5780630a28a4771461025b57806313af40351461027b57806318160ddd1461029d57600080fd5b806301e1d114146101c757806306fdde03146101e957806307a2d13a1461020b57600080fd5b366101c257005b600080fd5b3480156101d357600080fd5b50475b6040519081526020015b60405180910390f35b3480156101f557600080fd5b506101fe610519565b6040516101e09190610ea7565b34801561021757600080fd5b506101d6610226366004610ef6565b6105ab565b34801561023757600080fd5b5061024b610246366004610f2b565b6105be565b60405190151581526020016101e0565b34801561026757600080fd5b506101d6610276366004610ef6565b6105d6565b34801561028757600080fd5b5061029b610296366004610f55565b6105e3565b005b3480156102a957600080fd5b506002546101d6565b3480156102be57600080fd5b5061024b6102cd366004610f70565b61065a565b3480156102de57600080fd5b506102e7610680565b60405160ff90911681526020016101e0565b34801561030557600080fd5b50305b6040516001600160a01b0390911681526020016101e0565b34801561032c57600080fd5b506101d661033b366004610f55565b5060001990565b34801561034e57600080fd5b5061024b61035d366004610fac565b6106b1565b6101d6610370366004610fac565b610735565b34801561038157600080fd5b506101d6610390366004610f55565b6001600160a01b031660009081526020819052604090205490565b6101d66103b9366004610fac565b61075b565b3480156103ca57600080fd5b506101fe610779565b3480156103df57600080fd5b5061024b6103ee366004610f2b565b610788565b3480156103ff57600080fd5b506101d661040e366004610ef6565b610796565b34801561041f57600080fd5b506101d661042e366004610fd8565b6107a3565b34801561043f57600080fd5b50600554610308906001600160a01b031681565b34801561045f57600080fd5b506101d661046e366004610fd8565b6107fb565b34801561047f57600080fd5b506101d661048e366004610ef6565b61084a565b34801561049f57600080fd5b506101d66104ae366004610f55565b610857565b3480156104bf57600080fd5b506101d66104ce366004610f55565b61087b565b3480156104df57600080fd5b506101d66104ee366004611014565b6001600160a01b03918216600090815260016020908152604080832093909416825291909152205490565b6060600380546105289061103e565b80601f01602080910402602001604051908101604052809291908181526020018280546105549061103e565b80156105a15780601f10610576576101008083540402835291602001916105a1565b820191906000526020600020905b81548152906001019060200180831161058457829003601f168201915b5050505050905090565b60006105b8826000610899565b92915050565b6000336105cc8185856108cb565b5060019392505050565b60006105b88260016108dd565b6005546001600160a01b031633146106385760405162461bcd60e51b815260206004820152601360248201527239b2b73232b91034b9903737ba1037bbb732b960691b60448201526064015b60405180910390fd5b600580546001600160a01b0319166001600160a01b0392909216919091179055565b600033610668858285610905565b610673858585610970565b60019150505b9392505050565b60006106ac817f000000000000000000000000000000000000000000000000000000000000000061108e565b905090565b6005546000906001600160a01b031633146106ff5760405162461bcd60e51b815260206004820152600e60248201526d1393d508185d5d1a1bdc9a5cd95960921b604482015260640161062f565b6040516001600160a01b0383169084156108fc029085906000818181858888f193505050501580156105cc573d6000803e3d6000fd5b600060001960006107458561084a565b9050610753338587846109cf565b949350505050565b6000600019600061076b85610796565b9050610753338583886109cf565b6060600480546105289061103e565b6000336105cc818585610970565b60006105b8826001610899565b6000806107af83610857565b9050808511156107d857828582604051633fa733bb60e21b815260040161062f939291906110a7565b60006107e3866105d6565b90506107f23386868985610a78565b95945050505050565b6000806108078361087b565b90508085111561083057828582604051632e52afbb60e21b815260040161062f939291906110a7565b600061083b866105ab565b90506107f2338686848a610a78565b60006105b88260006108dd565b6001600160a01b0381166000908152602081905260408120546105b8906000610899565b6001600160a01b0381166000908152602081905260408120546105b8565b60006106796108a94760016110c8565b6108b56000600a6111bf565b6002546108c291906110c8565b85919085610b19565b6108d88383836001610b68565b505050565b60006106796108ed82600a6111bf565b6002546108fa91906110c8565b6108c24760016110c8565b6001600160a01b03838116600090815260016020908152604080832093861683529290522054600019811461096a578181101561095b57828183604051637dc7a0d960e11b815260040161062f939291906110a7565b61096a84848484036000610b68565b50505050565b6001600160a01b03831661099a57604051634b637e8f60e11b81526000600482015260240161062f565b6001600160a01b0382166109c45760405163ec442f0560e01b81526000600482015260240161062f565b6108d8838383610c2f565b813414610a125760405162461bcd60e51b8152602060048201526011602482015270696e737566666963656e742066756e647360781b604482015260640161062f565b610a1c8382610d46565b826001600160a01b0316846001600160a01b03167fdcbc1c05240f31ff3ad067ef1ee35ce4997762752e3a095284754544f4c709d78484604051610a6a929190918252602082015260400190565b60405180910390a350505050565b826001600160a01b0316856001600160a01b031614610a9c57610a9c838683610905565b610aa68382610d80565b813414610ab257600080fd5b826001600160a01b0316846001600160a01b0316866001600160a01b03167ffbde797d201c681b91056529119e0b02407c7bb96a4a2c75c01fc9667232c8db8585604051610b0a929190918252602082015260400190565b60405180910390a45050505050565b600080610b27868686610db6565b9050610b3283610e7a565b8015610b4e575060008480610b4957610b496111ce565b868809115b156107f257610b5e6001826110c8565b9695505050505050565b6001600160a01b038416610b925760405163e602df0560e01b81526000600482015260240161062f565b6001600160a01b038316610bbc57604051634a1406b160e11b81526000600482015260240161062f565b6001600160a01b038085166000908152600160209081526040808320938716835292905220829055801561096a57826001600160a01b0316846001600160a01b03167f8c5be1e5ebec7d5bd14f71427d1e84f3dd0314c0f7b2291e5b200ac8c7c3b92584604051610a6a91815260200190565b6001600160a01b038316610c5a578060026000828254610c4f91906110c8565b90915550610cb99050565b6001600160a01b03831660009081526020819052604090205481811015610c9a5783818360405163391434e360e21b815260040161062f939291906110a7565b6001600160a01b03841660009081526020819052604090209082900390555b6001600160a01b038216610cd557600280548290039055610cf4565b6001600160a01b03821660009081526020819052604090208054820190555b816001600160a01b0316836001600160a01b03167fddf252ad1be2c89b69c2b068fc378daa952ba7f163c4a11628f55a4df523b3ef83604051610d3991815260200190565b60405180910390a3505050565b6001600160a01b038216610d705760405163ec442f0560e01b81526000600482015260240161062f565b610d7c60008383610c2f565b5050565b6001600160a01b038216610daa57604051634b637e8f60e11b81526000600482015260240161062f565b610d7c82600083610c2f565b6000838302816000198587098281108382030391505080600003610ded57838281610de357610de36111ce565b0492505050610679565b808411610e0d5760405163227bc15360e01b815260040160405180910390fd5b6000848688096000868103871696879004966002600389028118808a02820302808a02820302808a02820302808a02820302808a02820302808a02909103029181900381900460010186841190950394909402919094039290920491909117919091029150509392505050565b60006002826003811115610e9057610e906111e4565b610e9a91906111fa565b60ff166001149050919050565b60006020808352835180602085015260005b81811015610ed557858101830151858201604001528201610eb9565b506000604082860101526040601f19601f8301168501019250505092915050565b600060208284031215610f0857600080fd5b5035919050565b80356001600160a01b0381168114610f2657600080fd5b919050565b60008060408385031215610f3e57600080fd5b610f4783610f0f565b946020939093013593505050565b600060208284031215610f6757600080fd5b61067982610f0f565b600080600060608486031215610f8557600080fd5b610f8e84610f0f565b9250610f9c60208501610f0f565b9150604084013590509250925092565b60008060408385031215610fbf57600080fd5b82359150610fcf60208401610f0f565b90509250929050565b600080600060608486031215610fed57600080fd5b83359250610ffd60208501610f0f565b915061100b60408501610f0f565b90509250925092565b6000806040838503121561102757600080fd5b61103083610f0f565b9150610fcf60208401610f0f565b600181811c9082168061105257607f821691505b60208210810361107257634e487b7160e01b600052602260045260246000fd5b50919050565b634e487b7160e01b600052601160045260246000fd5b60ff81811683821601908111156105b8576105b8611078565b6001600160a01b039390931683526020830191909152604082015260600190565b808201808211156105b8576105b8611078565b600181815b808511156111165781600019048211156110fc576110fc611078565b8085161561110957918102915b93841c93908002906110e0565b509250929050565b60008261112d575060016105b8565b8161113a575060006105b8565b8160018114611150576002811461115a57611176565b60019150506105b8565b60ff84111561116b5761116b611078565b50506001821b6105b8565b5060208310610133831016604e8410600b8410161715611199575081810a6105b8565b6111a383836110db565b80600019048211156111b7576111b7611078565b029392505050565b600061067960ff84168361111e565b634e487b7160e01b600052601260045260246000fd5b634e487b7160e01b600052602160045260246000fd5b600060ff83168061121b57634e487b7160e01b600052601260045260246000fd5b8060ff8416069150509291505056fea2646970667358221220c6f7d9c83bbb8b2422c7ed5c920e87a8a482f27253652ded75305266e91001b264736f6c63430008180033","linkReferences":{}},"methodIdentifiers":{"Owner()":"b4a99a4e","allowance(address,address)":"dd62ed3e","approve(address,uint256)":"095ea7b3","asset()":"38d52e0f","balanceOf(address)":"70a08231","convertToAssets(uint256)":"07a2d13a","convertToShares(uint256)":"c6e6f592","decimals()":"313ce567","deposit(uint256,address)":"6e553f65","maxDeposit(address)":"402d267d","maxMint(address)":"c63d75b6","maxRedeem(address)":"d905777e","maxWithdraw(address)":"ce96cb77","mint(uint256,address)":"94bf804d","name()":"06fdde03","previewDeposit(uint256)":"ef8b30f7","previewMint(uint256)":"b3d7f6b9","previewRedeem(uint256)":"4cdad506","previewWithdraw(uint256)":"0a28a477","redeem(uint256,address,address)":"ba087652","setOwner(address)":"13af4035","symbol()":"95d89b41","totalAssets()":"01e1d114","totalSupply()":"18160ddd","transfer(address,uint256)":"a9059cbb","transferETH(uint256,address)":"6e07c470","transferFrom(address,address,uint256)":"23b872dd","withdraw(uint256,address,address)":"b460af94"},"id":14}