{"abi":[{"type":"function","name":"Aavepool","inputs":[],"outputs":[{"name":"","type":"address","internalType":"contract IPool"}],"stateMutability":"view"},{"type":"function","name":"calculateYieldAAVE","inputs":[{"name":"aDaiAddress","type":"address","internalType":"address"},{"name":"amount","type":"uint256","internalType":"uint256"}],"outputs":[{"name":"","type":"uint256","internalType":"uint256"}],"stateMutability":"view"},{"type":"function","name":"calculateYieldRateAAVE","inputs":[{"name":"asset","type":"address","internalType":"address"}],"outputs":[{"name":"","type":"uint256","internalType":"uint256"}],"stateMutability":"nonpayable"},{"type":"event","name":"AssetWithdrawAAVE","inputs":[{"name":"user","type":"address","indexed":true,"internalType":"address"},{"name":"amount","type":"uint256","indexed":false,"internalType":"uint256"}],"anonymous":false}],"bytecode":{"object":"0x6080806040523461003c57600080546001600160a01b031916736ae43d3271ff6888e7fc43fd7321a503ff7389511790556102ba90816100428239f35b600080fdfe6080604090808252600436101561001557600080fd5b600090813560e01c9081638a60af031461020d57508063ab3bcd56146101015763d3e6e6441461004457600080fd5b346100e857602091826003193601126100fd5761005f610231565b8254825163d15e005360e01b81526001600160a01b03928316600482015291859183916024918391165afa9283156100f25780936100b1575b505069152d02c7e14af680000061271091519204068152f35b909192508382813d83116100eb575b6100ca818361024c565b810103126100e85750519069152d02c7e14af6800000612710610098565b80fd5b503d6100c0565b8251903d90823e3d90fd5b5080fd5b5090346100fd57806003193601126100fd5761011b610231565b8254825163d15e005360e01b81526001600160a01b039283166004820152602480359391926020928492918391165afa9081156102005784916101ca575b508082029082820414821517156101b6576b033b2e3c9fd0803ce8000000900490808211156101ab5781039081116101975760209250905b51908152f35b634e487b7160e01b83526011600452602483fd5b505060209190610191565b634e487b7160e01b84526011600452602484fd5b90506020813d6020116101f8575b816101e56020938361024c565b810103126101f4575138610159565b8380fd5b3d91506101d8565b50505051903d90823e3d90fd5b9050346100fd57816003193601126100fd5790546001600160a01b03168152602090f35b600435906001600160a01b038216820361024757565b600080fd5b90601f8019910116810190811067ffffffffffffffff82111761026e57604052565b634e487b7160e01b600052604160045260246000fdfea2646970667358221220e685cd66c1f5784817a9f3d24015cd3d01142004b4ec9f8dcc37473d31bbf3a964736f6c63430008180033","linkReferences":{}},"methodIdentifiers":{"Aavepool()":"8a60af03","calculateYieldAAVE(address,uint256)":"ab3bcd56","calculateYieldRateAAVE(address)":"d3e6e644"},"id":46}