{"abi":[{"type":"constructor","inputs":[{"name":"_vault","type":"address","internalType":"address"}],"stateMutability":"nonpayable"},{"type":"receive","stateMutability":"payable"},{"type":"function","name":"Aavepool","inputs":[],"outputs":[{"name":"","type":"address","internalType":"contract IPool"}],"stateMutability":"view"},{"type":"function","name":"CreateTokenPair","inputs":[{"name":"YBTaddress","type":"address","internalType":"address"}],"outputs":[],"stateMutability":"nonpayable"},{"type":"function","name":"DepositYBT","inputs":[{"name":"_TokenAddress","type":"address","internalType":"address"},{"name":"amount","type":"uint256","internalType":"uint256"}],"outputs":[{"name":"","type":"bool","internalType":"bool"}],"stateMutability":"nonpayable"},{"type":"function","name":"IntroduceToken","inputs":[{"name":"_TokenAddress","type":"address","internalType":"address"},{"name":"_underlyingAsset","type":"address","internalType":"address"},{"name":"_oracle","type":"address","internalType":"address"},{"name":"_protocol","type":"string","internalType":"string"}],"outputs":[{"name":"","type":"bool","internalType":"bool"}],"stateMutability":"nonpayable"},{"type":"function","name":"Owner","inputs":[],"outputs":[{"name":"","type":"address","internalType":"address"}],"stateMutability":"view"},{"type":"function","name":"WETH9","inputs":[],"outputs":[{"name":"","type":"address","internalType":"address"}],"stateMutability":"view"},{"type":"function","name":"WithdrawYBT","inputs":[{"name":"_TokenAddress","type":"address","internalType":"address"},{"name":"amount","type":"uint256","internalType":"uint256"}],"outputs":[{"name":"","type":"bool","internalType":"bool"}],"stateMutability":"nonpayable"},{"type":"function","name":"borrow","inputs":[{"name":"amount","type":"uint256","internalType":"uint256"},{"name":"StakingAsset","type":"address","internalType":"address"}],"outputs":[{"name":"","type":"bool","internalType":"bool"}],"stateMutability":"nonpayable"},{"type":"function","name":"calculateInterest","inputs":[{"name":"amount","type":"uint256","internalType":"uint256"},{"name":"timestamp","type":"uint256","internalType":"uint256"}],"outputs":[{"name":"interest","type":"uint256","internalType":"uint256"}],"stateMutability":"view"},{"type":"function","name":"calculateYieldAAVE","inputs":[{"name":"aDaiAddress","type":"address","internalType":"address"},{"name":"amount","type":"uint256","internalType":"uint256"}],"outputs":[{"name":"","type":"uint256","internalType":"uint256"}],"stateMutability":"view"},{"type":"function","name":"calculateYieldRateAAVE","inputs":[{"name":"asset","type":"address","internalType":"address"}],"outputs":[{"name":"","type":"uint256","internalType":"uint256"}],"stateMutability":"nonpayable"},{"type":"function","name":"changeOwner","inputs":[{"name":"new_owner","type":"address","internalType":"address"}],"outputs":[],"stateMutability":"nonpayable"},{"type":"function","name":"claimReserveAssets","inputs":[{"name":"_TokenAddress","type":"address","internalType":"address"},{"name":"amount","type":"uint256","internalType":"uint256"},{"name":"_proto","type":"string","internalType":"string"}],"outputs":[{"name":"","type":"bool","internalType":"bool"}],"stateMutability":"nonpayable"},{"type":"function","name":"getPairTokens","inputs":[{"name":"_TokenAddres","type":"address","internalType":"address"}],"outputs":[{"name":"ytt","type":"address","internalType":"address"},{"name":"ptt","type":"address","internalType":"address"}],"stateMutability":"view"},{"type":"function","name":"liquidate","inputs":[{"name":"user","type":"address","internalType":"address"}],"outputs":[{"name":"","type":"bool","internalType":"bool"}],"stateMutability":"nonpayable"},{"type":"function","name":"payInterst","inputs":[],"outputs":[{"name":"","type":"bool","internalType":"bool"}],"stateMutability":"payable"},{"type":"function","name":"redeemPTT","inputs":[{"name":"_TokenAddress","type":"address","internalType":"address"},{"name":"amount","type":"uint256","internalType":"uint256"}],"outputs":[{"name":"","type":"bool","internalType":"bool"}],"stateMutability":"nonpayable"},{"type":"function","name":"redeemYTT","inputs":[{"name":"_TokenAddress","type":"address","internalType":"address"},{"name":"amount","type":"uint256","internalType":"uint256"}],"outputs":[{"name":"","type":"bool","internalType":"bool"}],"stateMutability":"nonpayable"},{"type":"function","name":"repay","inputs":[{"name":"amount","type":"uint256","internalType":"uint256"}],"outputs":[{"name":"","type":"bool","internalType":"bool"}],"stateMutability":"payable"},{"type":"function","name":"setVault","inputs":[{"name":"newaddress","type":"address","internalType":"address"}],"outputs":[],"stateMutability":"nonpayable"},{"type":"function","name":"swapRouter","inputs":[],"outputs":[{"name":"","type":"address","internalType":"contract ISwapRouter"}],"stateMutability":"view"},{"type":"event","name":"AssetWithdrawAAVE","inputs":[{"name":"user","type":"address","indexed":true,"internalType":"address"},{"name":"amount","type":"uint256","indexed":false,"internalType":"uint256"}],"anonymous":false},{"type":"event","name":"Deposit","inputs":[{"name":"","type":"address","indexed":true,"internalType":"address"},{"name":"amount","type":"uint256","indexed":false,"internalType":"uint256"}],"anonymous":false},{"type":"event","name":"WithDrawPrincipal","inputs":[{"name":"","type":"address","indexed":true,"internalType":"address"},{"name":"amount","type":"uint256","indexed":false,"internalType":"uint256"}],"anonymous":false},{"type":"event","name":"WithdrawAAVE","inputs":[{"name":"_TokenAddress","type":"address","indexed":true,"internalType":"address"},{"name":"user","type":"address","indexed":false,"internalType":"address"},{"name":"amount","type":"uint256","indexed":false,"internalType":"uint256"}],"anonymous":false},{"type":"event","name":"WithdrawYield","inputs":[{"name":"","type":"address","indexed":true,"internalType":"address"},{"name":"amount","type":"uint256","indexed":false,"internalType":"uint256"}],"anonymous":false},{"type":"error","name":"insufficentAmount","inputs":[{"name":"user","type":"address","internalType":"address"}]}],"bytecode":{"object":"0x6080346100a957601f62004a4038819003918201601f19168301916001600160401b038311848410176100ae578084926020946040528339810103126100a957516001600160a01b038116908190036100a95761020561ffff19600054161760005560018060a01b031933816005541617600555736ae43d3271ff6888e7fc43fd7321a503ff738951816007541617600755600854161760085560405161497b9081620000c58239f35b600080fd5b634e487b7160e01b600052604160045260246000fdfe608060405260043610156200001d575b36156200001b57600080fd5b005b6000803560e01c80630cf7f102146200241e5780630faa39ff14620021485780632e3b77ee1462001e065780632f8655681462001ce0578063371fd8e61462001b095780634aa4a4fc1462001ad85780634b3fd14814620015a35780636817031b14620015585780637515668314620015085780638a60af0314620014dd578063a6f9dae11462001493578063ab3bcd561462001465578063aeeafe9a1462000e07578063af97b3a41462000a74578063b4a99a4e1462000a49578063b627513a1462000411578063be31a8bb146200035b578063c2fedfc314620001b1578063c31c9c071462000180578063d3e6e64414620001565763efdd7c07146200012657506200000f565b3462000153576040366003190112620001535760206200014b602435600435620029a0565b604051908152f35b80fd5b503462000153576020366003190112620001535760206200014b6200017a6200258b565b6200290a565b50346200015357806003193601126200015357602060405173e592427a0aece92de3edee1f18e0157c058615648152f35b503462000153576020806003193601126200035757620001d06200258b565b6005546001600160a01b0391908216330362000353578116918284526006815260ff604085205416156200031b57604051610cb1908181016001600160401b039282821084831117620003075760c091839162002fe483396060815288606082015260808682015260036080820152621c1d1d60ea1b60a082015287604082015203019086f0908115620002fc5760405190610cb180830191821183831017620003075760c091839162003c9583396060815288606082015260808682015260036080820152621e5d1d60ea1b60a082015287604082015203019086f0938415620002fc5785526006909152604084208054610100600160a81b03191691831660081b610100600160a81b031691909117815560010191166001600160601b0360a01b82541617905580f35b6040513d87823e3d90fd5b634e487b7160e01b88526041600452602488fd5b6064906040519062461bcd60e51b8252600482015260116024820152701d1bdad95b881a5cc81858d8d95c1d1959607a1b6044820152fd5b8380fd5b5080fd5b5080600319360112620001535733815260026020526040812060ff8154166003811015620003fd57600162000391911462002724565b620003b5620003ac60046001840154930192835490620029a0565b34101562002795565b8180808060018060a01b036008541681903415620003f2575b3491f115620003e557429055604051908152602090f35b50604051903d90823e3d90fd5b6108fc9150620003ce565b634e487b7160e01b83526021600452602483fd5b50346200015357606036600319011262000153576200042f6200258b565b906024356044356001600160401b038111620009e25736602382011215620009e2576200046790369060248160040135910162002666565b6005549093906001600160a01b03163303620009e2576001600160a01b03811680845260046020526040842054909490831162000a11576040519081815191865b838110620009f957505080620004cd9260209201878382015203808452018262002628565b602081519101206040516020810190634141564560e01b825260048152620004f5816200260c565b519020146200050a575b602083604051908152f35b8260206200055e6200051d858562002815565b600754604051631a4ca37b60e21b81526001600160a01b03878116600483015260248201939093523060448201529485939190921691839182906064820190565b03925af18015620009ee57620009b9575b506008546040516313363b3560e31b602082019081526001600160a01b0384811660248401526044808401879052835286938493601f19938593849316918390620005bc60648262002628565b51925af150620005cb620028d5565b506040516323b872dd60e01b6020820190815233602483015230604483015260648201879052916200060a9082608481015b0390810183528262002628565b519082855af16200061a620028d5565b8162000985575b50156200095a57604051602081019063095ea7b360e01b825273e592427a0aece92de3edee1f18e0157c05861564602482015283604482015260448152608081018181106001600160401b03821117620008d45760405251849283929083905af16200068c620028d5565b8162000926575b5015620008fc57600854426103848101916001600160a01b0316908210620008e8576040519461010086018681106001600160401b03821117620008d457604090815290865273c02aaa39b223fe8d0a0e5c4f27ead9083c756cc26020808801918252610bb8888401908152606089019485526080890195865260a0890196875260c0890188815260e08a01898152945163414bf38960e01b815299516001600160a01b0390811660048c01529351841660248b0152905162ffffff1660448a015293518216606489015293516084880152935160a4870152905160c48601525190911660e484015282610104818473e592427a0aece92de3edee1f18e0157c058615645af1918215620003e55781926200089a575b5073c02aaa39b223fe8d0a0e5c4f27ead9083c756cc23b156200015357604051632e1a7d4d60e01b81526004810183905281816024818373c02aaa39b223fe8d0a0e5c4f27ead9083c756cc25af180156200088f5762000862575b508080808094335af162000817620028d5565b50156200082757803880620004ff565b60405162461bcd60e51b8152602060048201526013602482015272115512081d1c985b9cd9995c8819985a5b1959606a1b6044820152606490fd5b6001600160401b0381116200087b576040523862000804565b634e487b7160e01b82526041600452602482fd5b6040513d84823e3d90fd5b9091506020813d602011620008cb575b81620008b96020938362002628565b810103126200035757519038620007a9565b3d9150620008aa565b634e487b7160e01b86526041600452602486fd5b634e487b7160e01b84526011600452602484fd5b60405162461bcd60e51b8152602060048201526002602482015261534160f01b6044820152606490fd5b80518015925082156200093d575b50503862000693565b620009529250602080918301019101620027d9565b388062000934565b60405162461bcd60e51b815260206004820152600360248201526229aa2360e91b6044820152606490fd5b80518015925082156200099c575b50503862000621565b620009b19250602080918301019101620027d9565b388062000993565b602090813d8311620009e6575b620009d2818362002628565b81010312620009e257386200056f565b8280fd5b503d620009c6565b6040513d86823e3d90fd5b602082820181015186830182015285935001620004a8565b60405162461bcd60e51b815260206004820152601060248201526f139bdd08115b9bdd59da08185cdcd95d60821b6044820152606490fd5b503462000153578060031936011262000153576005546040516001600160a01b039091168152602090f35b503462000153576040366003190112620001535762000a926200258b565b9060243560018060a01b0380931690818352826020946006865262000abe60ff604084205416620026a2565b83825260068652604082209060405162000ad881620025be565b82549060ff821615158152828982019260081c168252600460019484868201541660408401528460028201541660608401528460038201541660808401520190604051918a879180549062000b2d82620026e7565b91828752888a8216918260001462000de657505060011462000dab575b5050509160a062000b71949262000b65838896038462002628565b015251161515620026a2565b848352600687526040832090600482019260405193898501908a879180549062000b9b82620026e7565b9189878216918260001462000d8e57505060011462000d55575b5050508590039462000bd0601f199687810183528262002628565b5190206040518a810190634141564560e01b82526004815262000bf3816200260c565b5190201462000c07575b8885604051908152f35b8254920154604051632770a7eb60e21b8a8201818152336024840152604483018990526064808801845288979486169692958895948694859460089190911c9092169284919062000c59908262002628565b51925af15062000c68620028d5565b506040518a8101938452336024820152604481018890529062000c90908260648101620005fd565b51925af15062000c9f620028d5565b5060405163a9059cbb60e01b815233600482015260248101829052848160448187875af18015620009ee579162000d11917f670e540fb2da0c799078156068db8954b1d803e13cdbdbf2fd1f59fe301a4f7e9362000d21575b5060408051338152602081019290925290918291820190565b0390a23880828180808062000bfd565b62000d4590873d891162000d4d575b62000d3c818362002628565b810190620027d9565b503862000cf8565b503d62000d30565b90919250885281882088905b82821062000d775750508601018a388062000bb5565b8054828a018501528c995090830190850162000d61565b925094505060ff191684528015150282010190508a388062000bb5565b895281892091925088915b81831062000dcf5750508301018a8262000b6562000b4a565b80548387018501528c995091830191880162000db6565b60ff191685890152505050151560051b84010190508a8262000b6562000b4a565b503462000153576040366003190112620001535762000e256200258b565b6001600160a01b03811682526006602052604082205490919062000e4c9060ff16620026a2565b6001600160a01b038216815260066020526040808220905190929062000e7281620025be565b835460ff81161515825260081c6001600160a01b0390811660208301526001850154811660408084019190915260028601548216606084015260038601549091166080830152516004850154939485949062000ece82620026e7565b80845291600181169081156200143c5750600114620013fb575b505062000efe8162000f18949596038262002628565b60a0820152602001516001600160a01b03161515620026a2565b6001600160a01b0381168252600660205260408083209051929062000f3d84620025be565b805460ff81161515855260081c6001600160a01b039081166020860152600182015481166040808701919091526002830154821660608701526003830154909116608086015251600482015490918290849062000f9a84620026e7565b8084529360018116908115620013d757506001146200138f575b5062000fc39250038262002628565b60a08401526040516323b872dd60e01b815233600482015230602480830191909152356044820152602081606481856001600160a01b0388165af180156200088f576200136b575b5060208301516001600160a01b031615620011a5575b602083810151604080516340c10f1960e01b9381018481523360248084019190915235604480840191909152825291949384938493601f19938592839283926001600160a01b039092169183906200107b60648262002628565b51925af1986200108a620028d5565b50870151875160208101938452336024808301919091523560448201526001600160a01b0390911693620010c3908260648101620005fd565b51925af192620010d2620028d5565b5060018060a01b03168152600360205281812033825260205220620010fb602435825462002771565b9055816200119c575b5015620011445760405160243581527fe1fffcc4923d04b559f4d29a8bfc6cda04eb5b0d3c460751c2402c5c5cc9109c60203392a2602060405160018152f35b60405162461bcd60e51b815260206004820152602a60248201527f5969656c6420616e64205072696e69636970616c20546f6b656e7320617265206044820152691b9bdd081b5a5b9d195960b21b6064820152608490fd5b90503862001104565b6005546001600160a01b0316330362000153576001600160a01b03821681526006602052604081205460ff1615620013325760405180610cb18101106001600160401b03610cb1830111176200087b57610cb162002fe482396060610cb18201818152908101839052608060208201819052600390820152621c1d1d60ea1b60a08201526001600160a01b038416604082015281900360c0019082f08015620003e55760405180610cb18101106001600160401b03610cb1830111176200131e57610cb162003c9582396060610cb18201818152908101849052608060208201819052600390820152621e5d1d60ea1b60a08201526001600160a01b038516604082015281900360c0019083f09081156200088f576001600160a01b0384168352600660205260408084208054610100600160a81b03191660089390931b610100600160a81b031692909217825592919060010180546001600160a01b0319166001600160a01b03909216919091179055905062001021565b634e487b7160e01b83526041600452602483fd5b60405162461bcd60e51b81526020600482015260116024820152701d1bdad95b881a5cc81858d8d95c1d1959607a1b6044820152606490fd5b620013879060203d60201162000d4d5762000d3c818362002628565b50386200100b565b60040185525060208420909184915b818310620013ba57505090602062000fc3928201013862000fb4565b60209193508060019154838588010152019101909183926200139e565b90506020925062000fc394915060ff191682840152151560051b8201013862000fb4565b60049196500184526020842084905b8682106200142557508101602001945062000efe8162000ee8565b60018160209254838587010152019101906200140a565b60ff191660208086019190915292151560051b8401909201965062000efe915082905062000ee8565b503462000153576040366003190112620001535760206200014b620014896200258b565b6024359062002815565b5034620001535760203660031901126200015357620014b16200258b565b600554906001600160a01b03908183163303620003535716906001600160601b0360a01b161760055580f35b503462000153578060031936011262000153576007546040516001600160a01b039091168152602090f35b50346200015357602036600319011262000153576040906001600160a01b0390829082620015356200258b565b1681526006602052209080600183015416915460081c1682519182526020820152f35b5034620001535760203660031901126200015357620015766200258b565b6005546001600160a01b03919082163303620009e257166001600160601b0360a01b600854161760085580f35b5034620001535760403660031901126200015357620015c1620025a7565b6001600160a01b038116825260066020526040822054909190620015e89060ff16620026a2565b6001600160a01b038216815260066020526040808220905192906200160d84620025be565b805460ff81161515855260081c6001600160a01b039081166020860190815260018301548216604080880191909152600284015483166060880152600384015490921660808701529051600492909201805491929185916200166f82620026e7565b808552916001811690811562001aaf575060011462001a70575b5050620016b6939495620016a28360a093038462002628565b0152516001600160a01b03161515620026a2565b338252600260205260ff6040832054166003811015620003fd5762001a36576001600160a01b038116825260066020526040822090620016f68162002be7565b6001909201546001600160a01b0316916200171062002ee5565b6200171b8362002f9d565b6040516370a0823160e01b81523360048201529190602083602481895afa92831562001a2b578793620019ed575b50620017568484620027f3565b92600784029380850460071490151715620019d957906200177791620027f3565b918115620019c55790620186a06305f5e100920492040410156200198757600a60043502916004358304600a1460043515171562001973576affffffffffffffffffffff60405192620017ca84620025f0565b6001845216602083015260018060a01b0316604082015260043560608201526007820460808201524260a08201524260c082015233845260026020526040842090805160038110156200195f5760208083015160408085015160ff90941660089290921b6bffffffffffffffffffffff001691909117606093841b6bffffffffffffffffffffffff19161785559183015160018501556080830151600285015560a0830151600385015560c09290920151600493840155516323b872dd60e01b81523392810192909252306024830152600790920460448201529182908185816064810103925af180156200088f576200193b575b5080602060018060a01b03600854166044604051809581936306e07c4760e41b835260043560048401523360248401525af19081156200192f57506200190b575b602060405160018152f35b620019279060203d60201162000d4d5762000d3c818362002628565b503862001900565b604051903d90823e3d90fd5b620019579060203d60201162000d4d5762000d3c818362002628565b5038620018bf565b634e487b7160e01b86526021600452602486fd5b634e487b7160e01b85526011600452602485fd5b60405162461bcd60e51b81526020600482015260166024820152752727aa1022b737bab3b4102cb4b2b632102a37b5b2b760511b6044820152606490fd5b634e487b7160e01b87526012600452602487fd5b634e487b7160e01b88526011600452602488fd5b9092506020813d60201162001a22575b8162001a0c6020938362002628565b8101031262001a1e5751913862001749565b8680fd5b3d9150620019fd565b6040513d89823e3d90fd5b60405162461bcd60e51b81526020600482015260126024820152712637b0b71030b63932b0b23c903a30b5b2b760711b6044820152606490fd5b8652602086208692505b81831062001a94575050810160200185620016a262001689565b60018160209294939454838588010152019101919062001a7a565b60ff191660208087019190915292151560051b85019092019250879150620016a2905062001689565b50346200015357806003193601126200015357602060405173c02aaa39b223fe8d0a0e5c4f27ead9083c756cc28152f35b506020806003193601126200035757338252600281526040822060ff815416600381101562001ccc579062001b42600185931462002724565b62001b68620003ac62001b5f6001840154600485015490620029a0565b60043562002771565b60018060a01b038280808084600854168190341562001cc1575b3491f1156200088f57815460601c835260068452604080842060010154600290930154905163a9059cbb60e01b81523360048201526024810191909152928492849260449284929091165af1801562001cb65762001c94575b506040519162001beb83620025f0565b8083528183019281845260408101828152606082018381526080830184815260a084019185835260c08501938685523387526002885260408720955190600382101562001c805760ff6bffffffffffffffffffffff00600498999a9b5160081b16916001600160601b0319905160601b1692161717865551600186015551600285015551600384015551910155604051908152f35b634e487b7160e01b88526021600452602488fd5b62001cae90823d841162000d4d5762000d3c818362002628565b503862001bdb565b6040513d85823e3d90fd5b6108fc915062001b82565b634e487b7160e01b84526021600452602484fd5b50346200015357602080600319360112620003575762001cff6200258b565b6001600160a01b03811633811462001dc1578352600282526040832080549160ff831660038110156200195f5762001d469162001d40600185931462002724565b62002db0565b1562001d7c57600201549060601c83526004825262001d6b6040842091825462002771565b90556040519162001beb83620025f0565b60405162461bcd60e51b815260048101849052601a60248201527f43616e6e6f74206c69717569646174652074686973206c6f616e0000000000006044820152606490fd5b60405162461bcd60e51b815260048101849052601a60248201527f63616e6e6f74206c697175696461746520796f757273656c66200000000000006044820152606490fd5b503462000153576040366003190112620001535762001e246200258b565b6001600160a01b039081168083526006602090815260408420549093928491602435919062001e569060ff16620026a2565b83855260068352604085209360405162001e7081620025be565b82865460ff811615158352818784019160081c1681526004600198838a8201541660408601528360028201541660608601528360038201541660808601520192604051908a9480549062001ec482620026e7565b918285528b8d8216918260001462002124575050600114620020de575b505060a09062000b658362001ef897038462002628565b85526006835284604081209460048601906040519186830190849080549062001f2182620026e7565b91868b8783169283600014620020c25750505060011462002089575b50508390039262001f57601f199485810183528262002628565b51902060405187810190634141564560e01b82526004815262001f7a816200260c565b5190201462001f8e575b8583604051908152f35b860154604051632770a7eb60e21b818801908152336024830152604482018790526200203a9862001ff7958795600295929491938493881692909184919062001fdc908260648101620005fd565b51925af15062001feb620028d5565b50015416928362002815565b600754604051631a4ca37b60e21b81526001600160a01b039094166004850152602484019190915230604484015291938492909116908290869082906064820190565b03925af180156200088f579083916200205a575b80808481859462001f84565b813d831162002081575b62002070818362002628565b81010312620001535781386200204e565b503d62002064565b899250865281862086905b828210620020a9575050840101833862001f3d565b80548288018501528c97508a9390910190850162002094565b9250939250935060ff1916845280151502820101903862001f3d565b9095508b5288808c20958b8d975b8289106200210957505050948201909401938062000b6562001ee1565b805489870185015292909701968996508b928d9101620020ec565b60ff19168187015292151560051b8501909201965082915062000b65905062001ee1565b5034620001535760803660031901126200015357620021666200258b565b9062002171620025a7565b6001600160a01b039290604435848116908190036200035357606435916001600160401b03918284116200241a57366023850112156200241a5783600401359483861162001a1e57366024878701011162001a1e578760055416330362001a1e578716938487526020976006895260ff604089205416620023d55760405193620021fb85620025be565b816001988987528b8701908b825260408801958c87528360608a019516855260808901978852369060240191620022329262002666565b60a08801908152988b5260068c5260408b209651875491516001600160a81b031990921660ff9115159190911617911660081b610100600160a81b031617855581888601935116926001600160601b0360a01b938482541617905581600286019151168382541617905560038401925116908254161790556004019151938451918211620023c157620022c68354620026e7565b601f811162002376575b508590601f8311600114620023125794829394959262002306575b5050600019600383901b1c191690831b179055604051908152f35b015190503880620022eb565b90601f19831695848352878320925b88888210620023615750508386979695961062002347575b505050811b0190556200014b565b015160001960f88460031b161c1916905538808062002339565b82840151855593870193928301920162002321565b838252868220601f840160051c810191888510620023b6575b601f0160051c019085905b828110620023aa575050620022d0565b8381550185906200239a565b90915081906200238f565b634e487b7160e01b81526041600452602490fd5b60405162461bcd60e51b8152600481018a9052601860248201527f546f6b656e20697320616c7265616479206578697374656400000000000000006044820152606490fd5b8580fd5b50346200015357604036600319011262000153576200243c6200258b565b9060018060a01b039081831692838252602093600685526200246560ff604085205416620026a2565b82526006845260408220926040516200247e81620025be565b84549060ff821615158152828782019260081c1682526004600196846001820154166040840152846002820154166060840152846003820154166080840152019060405191888798825492620024d484620026e7565b808752936001811690811562002564575060011462002522575b505050509060a06200250f94939262000b658362002519999a038462002628565b60243590620029f5565b50604051908152f35b89528189209199508892915b828410620025505750505082019096019560a08862000b656200250f620024ee565b80548685018c0152928a019281016200252e565b60ff19168488015250505090151560051b830101965060a08862000b656200250f620024ee565b600435906001600160a01b0382168203620025a257565b600080fd5b602435906001600160a01b0382168203620025a257565b60c081019081106001600160401b03821117620025da57604052565b634e487b7160e01b600052604160045260246000fd5b60e081019081106001600160401b03821117620025da57604052565b604081019081106001600160401b03821117620025da57604052565b90601f801991011681019081106001600160401b03821117620025da57604052565b6001600160401b038111620025da57601f01601f191660200190565b92919262002674826200264a565b9162002684604051938462002628565b829481845281830111620025a2578281602093846000960137010152565b15620026aa57565b60405162461bcd60e51b8152602060048201526015602482015274151bdad95b881a5cc81b9bdd081858d8d95c1d1959605a1b6044820152606490fd5b90600182811c9216801562002719575b60208310146200270357565b634e487b7160e01b600052602260045260246000fd5b91607f1691620026f7565b156200272c57565b60405162461bcd60e51b815260206004820152601760248201527f4c6f616e206973206e6f742054616b656e2074616b656e0000000000000000006044820152606490fd5b919082018092116200277f57565b634e487b7160e01b600052601160045260246000fd5b156200279d57565b60405162461bcd60e51b8152602060048201526014602482015273696e73756666696369656e742062616c616e636560601b6044820152606490fd5b90816020910312620025a257518015158103620025a25790565b818102929181159184041417156200277f57565b919082039182116200277f57565b60075460405163d15e005360e01b81526001600160a01b0392831660048201529160209183916024918391165afa908115620028c9576000916200288e575b506200286e6b033b2e3c9fd0803ce80000009183620027f3565b0490808211156200288757620028849162002807565b90565b5050600090565b90506020813d602011620028c0575b81620028ac6020938362002628565b81010312620025a257516200286e62002854565b3d91506200289d565b6040513d6000823e3d90fd5b3d1562002905573d90620028e9826200264a565b91620028f9604051938462002628565b82523d6000602084013e565b606090565b60075460405163d15e005360e01b81526001600160a01b0392831660048201529160209183916024918391165afa908115620028c9576000916200295e575b5069152d02c7e14af680000061271091040690565b90506020813d60201162002997575b816200297c6020938362002628565b81010312620025a2575169152d02c7e14af680000062002949565b3d91506200296d565b90620029b162015180914262002807565b0490620f424060ff60005416029062ffffff918281169081036200277f576305f5e10093620029f19361016d620029eb93041692620027f3565b620027f3565b0490565b919060009260009160018060a01b038092168352602091600683526040918285206004810184519081878101918990805462002a3181620026e7565b916001918c60018216918260001462002bcb57505060011462002b8f575b505050039162002a68601f199384810183528262002628565b519020855187810190634141564560e01b82526004815262002a8a816200260c565b5190201462002a9c5750505050505050565b81548551632770a7eb60e21b81890190815233602483015260448201869052999a509798969762002b459789969594869460029491938d93849360081c8816929091849162002af0908260648101620005fd565b51925af15062002aff620028d5565b5001546007548651631a4ca37b60e21b8152929091166001600160a01b031660048301526024820192909252336044820152948592909116908290889082906064820190565b03925af190811562002b86575062002b5c57505090565b813d831162002b7e575b62002b72818362002628565b81010312620001535790565b503d62002b66565b513d85823e3d90fd5b8b93508c52828c20908c915b83831062002bb25750505082010138808062002a4f565b80548389018601528795508c9490920191810162002b9b565b93509450505060ff191684528015150282010138808062002a4f565b90600091600060018060a01b038092168082526020906006825260046040842001604051838101918186825462002c1e81620026e7565b936001918960018216918260001462002ce357505060011462002ca2575b505062002c53925003601f19810183528262002628565b51902060405183810190634141564560e01b82526004815262002c76816200260c565b5190201462002c855750505050565b62002884949550916006604092600294835252200154166200290a565b88925089528189209089915b85831062002cc95750505062002c5392820101388062002c3c565b819392945080548386890101520192018791859362002cae565b925093505062002c5394915060ff1916865280151502820101388062002c3c565b90600091600060018060a01b038092168082526020906006825260046040842001604051838101918186825462002d3b81620026e7565b936001918960018216918260001462002ce357505060011462002d6f57505062002c53925003601f19810183528262002628565b88925089528189209089915b85831062002d965750505062002c5392820101388062002c3c565b819392945080548386890101520192018791859362002d7b565b90602d6201518062002dc760048401544262002807565b04111562002dd6575050600190565b80548060601c6affffffffffffffffffffff62002df38262002d04565b9260081c16821162002e085750505050600090565b602060009482865260068252602460018060a01b039162002e3e83600160408b200154169562002e3762002ee5565b5062002f9d565b5060405194859384926370a0823160e01b84521660048301525afa908115620009ee57849162002e92575b5062002e7b60019261271092620027f3565b04910154111560001462002e8c5790565b50600190565b90506020813d60201162002ec4575b8162002eb06020938362002628565b8101031262000353575162002e7b62002e69565b3d915062002ea1565b519069ffffffffffffffffffff82168203620025a257565b600080805260066020527f54cdd369e4e8a8515e52ca72ec816c2101831ad1f18bf44102ed171459c9b4fb54604051633fabe5a360e21b81529060a090829060049082906001600160a01b03165afa9182156200192f57809262002f4857505090565b90915060a0823d60a01162002f94575b8162002f6760a0938362002628565b8101031262000153575062002f7c8162002ecd565b5062002f9060806020830151920162002ecd565b5090565b3d915062002f58565b600460a0600180821b0380600094168452600660205260036040852001541660405192838092633fabe5a360e21b82525afa9182156200192f57809262002f485750509056fe608060405234620003515762000cb1803803806200001d8162000356565b9283398101606082820312620003515781516001600160401b03908181116200035157826200004e9185016200037c565b906020928385015182811162000351576040916200006e9187016200037c565b9401516001600160a01b03811694908590036200035157825182811162000251576003918254916001958684811c9416801562000346575b8885101462000330578190601f94858111620002da575b508890858311600114620002735760009262000267575b505060001982861b1c191690861b1783555b8051938411620002515760049586548681811c9116801562000246575b828210146200023157838111620001e6575b50809285116001146200017857509383949184926000956200016c575b50501b92600019911b1c19161790555b60018060a01b03193381600554161760055560065416176006556040516108c29081620003ef8239f35b01519350388062000132565b92919084601f1981168860005285600020956000905b89838310620001cb5750505010620001b0575b50505050811b01905562000142565b01519060f884600019921b161c1916905538808080620001a1565b8587015189559097019694850194889350908101906200018e565b87600052816000208480880160051c82019284891062000227575b0160051c019087905b8281106200021a57505062000115565b600081550187906200020a565b9250819262000201565b602288634e487b7160e01b6000525260246000fd5b90607f169062000103565b634e487b7160e01b600052604160045260246000fd5b015190503880620000d4565b90889350601f19831691876000528a6000209260005b8c828210620002c35750508411620002aa575b505050811b018355620000e6565b015160001983881b60f8161c191690553880806200029c565b8385015186558c9790950194938401930162000289565b90915085600052886000208580850160051c8201928b861062000326575b918a91869594930160051c01915b82811062000316575050620000bd565b600081558594508a910162000306565b92508192620002f8565b634e487b7160e01b600052602260045260246000fd5b93607f1693620000a6565b600080fd5b6040519190601f01601f191682016001600160401b038111838210176200025157604052565b919080601f84011215620003515782516001600160401b0381116200025157602090620003b2601f8201601f1916830162000356565b92818452828287010111620003515760005b818110620003da57508260009394955001015290565b8581018301518482018401528201620003c456fe608060408181526004918236101561001657600080fd5b600092833560e01c91826306fdde031461065a57508163095ea7b3146105b057816318160ddd1461059157816323b872dd1461049d578163313ce5671461048157816340c10f19146103c45781636e77449f1461039b57816370a082311461036457816395d89b41146102435781639dc29fac1461015757508063a9059cbb14610127578063b4a99a4e146100ff5763dd62ed3e146100b457600080fd5b346100fb57806003193601126100fb57806020926100d061077d565b6100d8610798565b6001600160a01b0391821683526001865283832091168252845220549051908152f35b5080fd5b50346100fb57816003193601126100fb5760055490516001600160a01b039091168152602090f35b50346100fb57806003193601126100fb5760209061015061014661077d565b60243590336107ae565b5160018152f35b82843461024057816003193601126102405761017161077d565b6005549093602435916001600160a01b03908116330361023c578516948515610225578584528360205284842054918383106101f157505060208286937fddf252ad1be2c89b69c2b068fc378daa952ba7f163c4a11628f55a4df523b3ef9383988752868452038686205580600254036002558551908152a35160018152f35b855163391434e360e21b81526001600160a01b03909216908201908152602081018390526040810184905281906060010390fd5b8451634b637e8f60e11b8152808301859052602490fd5b8380fd5b80fd5b8383346100fb57816003193601126100fb5780519082845460018160011c906001831692831561035a575b60209384841081146103475783885290811561032b57506001146102d6575b505050829003601f01601f191682019267ffffffffffffffff8411838510176102c357508291826102bf925282610734565b0390f35b634e487b7160e01b815260418552602490fd5b8787529192508591837f8a35acfbc15ff81a39ae7d344fd709f28e8600b4aa8c65c6b64bfe7fe36bd19b5b838510610317575050505083010185808061028d565b805488860183015293019284908201610301565b60ff1916878501525050151560051b840101905085808061028d565b634e487b7160e01b895260228a52602489fd5b91607f169161026e565b5050346100fb5760203660031901126100fb5760209181906001600160a01b0361038c61077d565b16815280845220549051908152f35b5050346100fb57816003193601126100fb5760065490516001600160a01b039091168152602090f35b8284346102405781600319360112610240576103de61077d565b60055460243592916001600160a01b03918216330361047d57169182156104665760025481810180911161045357602095507fddf252ad1be2c89b69c2b068fc378daa952ba7f163c4a11628f55a4df523b3ef9186916002558484528382528584208181540190558551908152a35160018152f35b634e487b7160e01b835260118652602483fd5b835163ec442f0560e01b8152808601839052602490fd5b8280fd5b5050346100fb57816003193601126100fb576020905160128152f35b90508234610240576060366003190112610240576104b961077d565b6104c1610798565b916044359360018060a01b0383168083526001602052868320338452602052868320549160001983036104fd575b6020886101508989896107ae565b86831061056557811561054e57331561053757508252600160209081528683203384528152918690209085900390558290610150876104ef565b8751634a1406b160e11b8152908101849052602490fd5b875163e602df0560e01b8152908101849052602490fd5b8751637dc7a0d960e11b8152339181019182526020820193909352604081018790528291506060010390fd5b5050346100fb57816003193601126100fb576020906002549051908152f35b90503461047d578160031936011261047d576105ca61077d565b602435903315610643576001600160a01b031691821561062c57508083602095338152600187528181208582528752205582519081527f8c5be1e5ebec7d5bd14f71427d1e84f3dd0314c0f7b2291e5b200ac8c7c3b925843392a35160018152f35b8351634a1406b160e11b8152908101859052602490fd5b835163e602df0560e01b8152808401869052602490fd5b8490843461047d578260031936011261047d578260035460018160011c906001831692831561072a575b60209384841081146103475783885290811561032b57506001146106d457505050829003601f01601f191682019267ffffffffffffffff8411838510176102c357508291826102bf925282610734565b600387529192508591837fc2575a0e9e593c00f959f8c92f12db2869c3395a3b0502d05e2516446f71f85b5b838510610716575050505083010185808061028d565b805488860183015293019284908201610700565b91607f1691610684565b6020808252825181830181905290939260005b82811061076957505060409293506000838284010152601f8019910116010190565b818101860151848201604001528501610747565b600435906001600160a01b038216820361079357565b600080fd5b602435906001600160a01b038216820361079357565b916001600160a01b03808416928315610873571692831561085a5760009083825281602052604082205490838210610828575091604082827fddf252ad1be2c89b69c2b068fc378daa952ba7f163c4a11628f55a4df523b3ef958760209652828652038282205586815220818154019055604051908152a3565b60405163391434e360e21b81526001600160a01b03919091166004820152602481019190915260448101839052606490fd5b60405163ec442f0560e01b815260006004820152602490fd5b604051634b637e8f60e11b815260006004820152602490fdfea26469706673582212206211d93dd6981b9a28c540141fcbd27fac624076e9f31d5ad825db67452040c764736f6c63430008180033608060405234620003515762000cb1803803806200001d8162000356565b9283398101606082820312620003515781516001600160401b03908181116200035157826200004e9185016200037c565b906020928385015182811162000351576040916200006e9187016200037c565b9401516001600160a01b03811694908590036200035157825182811162000251576003918254916001958684811c9416801562000346575b8885101462000330578190601f94858111620002da575b508890858311600114620002735760009262000267575b505060001982861b1c191690861b1783555b8051938411620002515760049586548681811c9116801562000246575b828210146200023157838111620001e6575b50809285116001146200017857509383949184926000956200016c575b50501b92600019911b1c19161790555b60018060a01b03193381600554161760055560065416176006556040516108c29081620003ef8239f35b01519350388062000132565b92919084601f1981168860005285600020956000905b89838310620001cb5750505010620001b0575b50505050811b01905562000142565b01519060f884600019921b161c1916905538808080620001a1565b8587015189559097019694850194889350908101906200018e565b87600052816000208480880160051c82019284891062000227575b0160051c019087905b8281106200021a57505062000115565b600081550187906200020a565b9250819262000201565b602288634e487b7160e01b6000525260246000fd5b90607f169062000103565b634e487b7160e01b600052604160045260246000fd5b015190503880620000d4565b90889350601f19831691876000528a6000209260005b8c828210620002c35750508411620002aa575b505050811b018355620000e6565b015160001983881b60f8161c191690553880806200029c565b8385015186558c9790950194938401930162000289565b90915085600052886000208580850160051c8201928b861062000326575b918a91869594930160051c01915b82811062000316575050620000bd565b600081558594508a910162000306565b92508192620002f8565b634e487b7160e01b600052602260045260246000fd5b93607f1693620000a6565b600080fd5b6040519190601f01601f191682016001600160401b038111838210176200025157604052565b919080601f84011215620003515782516001600160401b0381116200025157602090620003b2601f8201601f1916830162000356565b92818452828287010111620003515760005b818110620003da57508260009394955001015290565b8581018301518482018401528201620003c456fe608060408181526004918236101561001657600080fd5b600092833560e01c91826306fdde031461065a57508163095ea7b3146105b057816318160ddd1461059157816323b872dd1461049d578163313ce5671461048157816340c10f19146103c45781636e77449f1461039b57816370a082311461036457816395d89b41146102435781639dc29fac1461015757508063a9059cbb14610127578063b4a99a4e146100ff5763dd62ed3e146100b457600080fd5b346100fb57806003193601126100fb57806020926100d061077d565b6100d8610798565b6001600160a01b0391821683526001865283832091168252845220549051908152f35b5080fd5b50346100fb57816003193601126100fb5760055490516001600160a01b039091168152602090f35b50346100fb57806003193601126100fb5760209061015061014661077d565b60243590336107ae565b5160018152f35b82843461024057816003193601126102405761017161077d565b6005549093602435916001600160a01b03908116330361023c578516948515610225578584528360205284842054918383106101f157505060208286937fddf252ad1be2c89b69c2b068fc378daa952ba7f163c4a11628f55a4df523b3ef9383988752868452038686205580600254036002558551908152a35160018152f35b855163391434e360e21b81526001600160a01b03909216908201908152602081018390526040810184905281906060010390fd5b8451634b637e8f60e11b8152808301859052602490fd5b8380fd5b80fd5b8383346100fb57816003193601126100fb5780519082845460018160011c906001831692831561035a575b60209384841081146103475783885290811561032b57506001146102d6575b505050829003601f01601f191682019267ffffffffffffffff8411838510176102c357508291826102bf925282610734565b0390f35b634e487b7160e01b815260418552602490fd5b8787529192508591837f8a35acfbc15ff81a39ae7d344fd709f28e8600b4aa8c65c6b64bfe7fe36bd19b5b838510610317575050505083010185808061028d565b805488860183015293019284908201610301565b60ff1916878501525050151560051b840101905085808061028d565b634e487b7160e01b895260228a52602489fd5b91607f169161026e565b5050346100fb5760203660031901126100fb5760209181906001600160a01b0361038c61077d565b16815280845220549051908152f35b5050346100fb57816003193601126100fb5760065490516001600160a01b039091168152602090f35b8284346102405781600319360112610240576103de61077d565b60055460243592916001600160a01b03918216330361047d57169182156104665760025481810180911161045357602095507fddf252ad1be2c89b69c2b068fc378daa952ba7f163c4a11628f55a4df523b3ef9186916002558484528382528584208181540190558551908152a35160018152f35b634e487b7160e01b835260118652602483fd5b835163ec442f0560e01b8152808601839052602490fd5b8280fd5b5050346100fb57816003193601126100fb576020905160128152f35b90508234610240576060366003190112610240576104b961077d565b6104c1610798565b916044359360018060a01b0383168083526001602052868320338452602052868320549160001983036104fd575b6020886101508989896107ae565b86831061056557811561054e57331561053757508252600160209081528683203384528152918690209085900390558290610150876104ef565b8751634a1406b160e11b8152908101849052602490fd5b875163e602df0560e01b8152908101849052602490fd5b8751637dc7a0d960e11b8152339181019182526020820193909352604081018790528291506060010390fd5b5050346100fb57816003193601126100fb576020906002549051908152f35b90503461047d578160031936011261047d576105ca61077d565b602435903315610643576001600160a01b031691821561062c57508083602095338152600187528181208582528752205582519081527f8c5be1e5ebec7d5bd14f71427d1e84f3dd0314c0f7b2291e5b200ac8c7c3b925843392a35160018152f35b8351634a1406b160e11b8152908101859052602490fd5b835163e602df0560e01b8152808401869052602490fd5b8490843461047d578260031936011261047d578260035460018160011c906001831692831561072a575b60209384841081146103475783885290811561032b57506001146106d457505050829003601f01601f191682019267ffffffffffffffff8411838510176102c357508291826102bf925282610734565b600387529192508591837fc2575a0e9e593c00f959f8c92f12db2869c3395a3b0502d05e2516446f71f85b5b838510610716575050505083010185808061028d565b805488860183015293019284908201610700565b91607f1691610684565b6020808252825181830181905290939260005b82811061076957505060409293506000838284010152601f8019910116010190565b818101860151848201604001528501610747565b600435906001600160a01b038216820361079357565b600080fd5b602435906001600160a01b038216820361079357565b916001600160a01b03808416928315610873571692831561085a5760009083825281602052604082205490838210610828575091604082827fddf252ad1be2c89b69c2b068fc378daa952ba7f163c4a11628f55a4df523b3ef958760209652828652038282205586815220818154019055604051908152a3565b60405163391434e360e21b81526001600160a01b03919091166004820152602481019190915260448101839052606490fd5b60405163ec442f0560e01b815260006004820152602490fd5b604051634b637e8f60e11b815260006004820152602490fdfea2646970667358221220eb1bd894eebb35a40bccef8803099100eda43b70f876c3942dc5e9a5c1b175bd64736f6c63430008180033a26469706673582212204bb404146b6b8a55db4e20085d91aba2be99817bdebdb426674208d96dd1848864736f6c63430008180033","linkReferences":{}},"methodIdentifiers":{"Aavepool()":"8a60af03","CreateTokenPair(address)":"c2fedfc3","DepositYBT(address,uint256)":"aeeafe9a","IntroduceToken(address,address,address,string)":"0faa39ff","Owner()":"b4a99a4e","WETH9()":"4aa4a4fc","WithdrawYBT(address,uint256)":"af97b3a4","borrow(uint256,address)":"4b3fd148","calculateInterest(uint256,uint256)":"efdd7c07","calculateYieldAAVE(address,uint256)":"ab3bcd56","calculateYieldRateAAVE(address)":"d3e6e644","changeOwner(address)":"a6f9dae1","claimReserveAssets(address,uint256,string)":"b627513a","getPairTokens(address)":"75156683","liquidate(address)":"2f865568","payInterst()":"be31a8bb","redeemPTT(address,uint256)":"0cf7f102","redeemYTT(address,uint256)":"2e3b77ee","repay(uint256)":"371fd8e6","setVault(address)":"6817031b","swapRouter()":"c31c9c07"},"id":45}