{"abi":[{"type":"constructor","inputs":[{"name":"name_","type":"string","internalType":"string"},{"name":"symbol_","type":"string","internalType":"string"},{"name":"YBAddress","type":"address","internalType":"address"}],"stateMutability":"nonpayable"},{"type":"function","name":"Owner","inputs":[],"outputs":[{"name":"","type":"address","internalType":"address"}],"stateMutability":"view"},{"type":"function","name":"YBTokenAddress","inputs":[],"outputs":[{"name":"","type":"address","internalType":"address"}],"stateMutability":"view"},{"type":"function","name":"allowance","inputs":[{"name":"owner","type":"address","internalType":"address"},{"name":"spender","type":"address","internalType":"address"}],"outputs":[{"name":"","type":"uint256","internalType":"uint256"}],"stateMutability":"view"},{"type":"function","name":"approve","inputs":[{"name":"spender","type":"address","internalType":"address"},{"name":"value","type":"uint256","internalType":"uint256"}],"outputs":[{"name":"","type":"bool","internalType":"bool"}],"stateMutability":"nonpayable"},{"type":"function","name":"balanceOf","inputs":[{"name":"account","type":"address","internalType":"address"}],"outputs":[{"name":"","type":"uint256","internalType":"uint256"}],"stateMutability":"view"},{"type":"function","name":"burn","inputs":[{"name":"user","type":"address","internalType":"address"},{"name":"amount","type":"uint256","internalType":"uint256"}],"outputs":[{"name":"","type":"bool","internalType":"bool"}],"stateMutability":"nonpayable"},{"type":"function","name":"decimals","inputs":[],"outputs":[{"name":"","type":"uint8","internalType":"uint8"}],"stateMutability":"view"},{"type":"function","name":"mint","inputs":[{"name":"user","type":"address","internalType":"address"},{"name":"amount","type":"uint256","internalType":"uint256"}],"outputs":[{"name":"","type":"bool","internalType":"bool"}],"stateMutability":"nonpayable"},{"type":"function","name":"name","inputs":[],"outputs":[{"name":"","type":"string","internalType":"string"}],"stateMutability":"view"},{"type":"function","name":"symbol","inputs":[],"outputs":[{"name":"","type":"string","internalType":"string"}],"stateMutability":"view"},{"type":"function","name":"totalSupply","inputs":[],"outputs":[{"name":"","type":"uint256","internalType":"uint256"}],"stateMutability":"view"},{"type":"function","name":"transfer","inputs":[{"name":"to","type":"address","internalType":"address"},{"name":"value","type":"uint256","internalType":"uint256"}],"outputs":[{"name":"","type":"bool","internalType":"bool"}],"stateMutability":"nonpayable"},{"type":"function","name":"transferFrom","inputs":[{"name":"from","type":"address","internalType":"address"},{"name":"to","type":"address","internalType":"address"},{"name":"value","type":"uint256","internalType":"uint256"}],"outputs":[{"name":"","type":"bool","internalType":"bool"}],"stateMutability":"nonpayable"},{"type":"event","name":"Approval","inputs":[{"name":"owner","type":"address","indexed":true,"internalType":"address"},{"name":"spender","type":"address","indexed":true,"internalType":"address"},{"name":"value","type":"uint256","indexed":false,"internalType":"uint256"}],"anonymous":false},{"type":"event","name":"Transfer","inputs":[{"name":"from","type":"address","indexed":true,"internalType":"address"},{"name":"to","type":"address","indexed":true,"internalType":"address"},{"name":"value","type":"uint256","indexed":false,"internalType":"uint256"}],"anonymous":false},{"type":"error","name":"ERC20InsufficientAllowance","inputs":[{"name":"spender","type":"address","internalType":"address"},{"name":"allowance","type":"uint256","internalType":"uint256"},{"name":"needed","type":"uint256","internalType":"uint256"}]},{"type":"error","name":"ERC20InsufficientBalance","inputs":[{"name":"sender","type":"address","internalType":"address"},{"name":"balance","type":"uint256","internalType":"uint256"},{"name":"needed","type":"uint256","internalType":"uint256"}]},{"type":"error","name":"ERC20InvalidApprover","inputs":[{"name":"approver","type":"address","internalType":"address"}]},{"type":"error","name":"ERC20InvalidReceiver","inputs":[{"name":"receiver","type":"address","internalType":"address"}]},{"type":"error","name":"ERC20InvalidSender","inputs":[{"name":"sender","type":"address","internalType":"address"}]},{"type":"error","name":"ERC20InvalidSpender","inputs":[{"name":"spender","type":"address","internalType":"address"}]}],"bytecode":{"object":"0x60806040523480156200001157600080fd5b5060405162000bd238038062000bd2833981016040819052620000349162000156565b8282600362000044838262000274565b50600462000053828262000274565b505060058054336001600160a01b031991821617909155600680549091166001600160a01b0393909316929092179091555062000340915050565b634e487b7160e01b600052604160045260246000fd5b600082601f830112620000b657600080fd5b81516001600160401b0380821115620000d357620000d36200008e565b604051601f8301601f19908116603f01168101908282118183101715620000fe57620000fe6200008e565b81604052838152602092508660208588010111156200011c57600080fd5b600091505b8382101562000140578582018301518183018401529082019062000121565b6000602085830101528094505050505092915050565b6000806000606084860312156200016c57600080fd5b83516001600160401b03808211156200018457600080fd5b6200019287838801620000a4565b94506020860151915080821115620001a957600080fd5b50620001b886828701620000a4565b604086015190935090506001600160a01b0381168114620001d857600080fd5b809150509250925092565b600181811c90821680620001f857607f821691505b6020821081036200021957634e487b7160e01b600052602260045260246000fd5b50919050565b601f8211156200026f576000816000526020600020601f850160051c810160208610156200024a5750805b601f850160051c820191505b818110156200026b5782815560010162000256565b5050505b505050565b81516001600160401b038111156200029057620002906200008e565b620002a881620002a18454620001e3565b846200021f565b602080601f831160018114620002e05760008415620002c75750858301515b600019600386901b1c1916600185901b1785556200026b565b600085815260208120601f198616915b828110156200031157888601518255948401946001909101908401620002f0565b5085821015620003305787850151600019600388901b60f8161c191681555b5050505050600190811b01905550565b61088280620003506000396000f3fe608060405234801561001057600080fd5b50600436106100cf5760003560e01c80636e77449f1161008c5780639dc29fac116100665780639dc29fac146101b8578063a9059cbb146101cb578063b4a99a4e146101de578063dd62ed3e146101f157600080fd5b80636e77449f1461015c57806370a082311461018757806395d89b41146101b057600080fd5b806306fdde03146100d4578063095ea7b3146100f257806318160ddd1461011557806323b872dd14610127578063313ce5671461013a57806340c10f1914610149575b600080fd5b6100dc61022a565b6040516100e991906106cb565b60405180910390f35b610105610100366004610736565b6102bc565b60405190151581526020016100e9565b6002545b6040519081526020016100e9565b610105610135366004610760565b6102d6565b604051601281526020016100e9565b610105610157366004610736565b6102fa565b60065461016f906001600160a01b031681565b6040516001600160a01b0390911681526020016100e9565b61011961019536600461079c565b6001600160a01b031660009081526020819052604090205490565b6100dc610327565b6101056101c6366004610736565b610336565b6101056101d9366004610736565b61035a565b60055461016f906001600160a01b031681565b6101196101ff3660046107be565b6001600160a01b03918216600090815260016020908152604080832093909416825291909152205490565b606060038054610239906107f1565b80601f0160208091040260200160405190810160405280929190818152602001828054610265906107f1565b80156102b25780601f10610287576101008083540402835291602001916102b2565b820191906000526020600020905b81548152906001019060200180831161029557829003601f168201915b5050505050905090565b6000336102ca818585610368565b60019150505b92915050565b6000336102e485828561037a565b6102ef8585856103fd565b506001949350505050565b6005546000906001600160a01b0316331461031457600080fd5b61031e838361045c565b50600192915050565b606060048054610239906107f1565b6005546000906001600160a01b0316331461035057600080fd5b61031e8383610496565b6000336102ca8185856103fd565b61037583838360016104cc565b505050565b6001600160a01b0383811660009081526001602090815260408083209386168352929052205460001981146103f757818110156103e857604051637dc7a0d960e11b81526001600160a01b038416600482015260248101829052604481018390526064015b60405180910390fd5b6103f7848484840360006104cc565b50505050565b6001600160a01b03831661042757604051634b637e8f60e11b8152600060048201526024016103df565b6001600160a01b0382166104515760405163ec442f0560e01b8152600060048201526024016103df565b6103758383836105a1565b6001600160a01b0382166104865760405163ec442f0560e01b8152600060048201526024016103df565b610492600083836105a1565b5050565b6001600160a01b0382166104c057604051634b637e8f60e11b8152600060048201526024016103df565b610492826000836105a1565b6001600160a01b0384166104f65760405163e602df0560e01b8152600060048201526024016103df565b6001600160a01b03831661052057604051634a1406b160e11b8152600060048201526024016103df565b6001600160a01b03808516600090815260016020908152604080832093871683529290522082905580156103f757826001600160a01b0316846001600160a01b03167f8c5be1e5ebec7d5bd14f71427d1e84f3dd0314c0f7b2291e5b200ac8c7c3b9258460405161059391815260200190565b60405180910390a350505050565b6001600160a01b0383166105cc5780600260008282546105c1919061082b565b9091555061063e9050565b6001600160a01b0383166000908152602081905260409020548181101561061f5760405163391434e360e21b81526001600160a01b038516600482015260248101829052604481018390526064016103df565b6001600160a01b03841660009081526020819052604090209082900390555b6001600160a01b03821661065a57600280548290039055610679565b6001600160a01b03821660009081526020819052604090208054820190555b816001600160a01b0316836001600160a01b03167fddf252ad1be2c89b69c2b068fc378daa952ba7f163c4a11628f55a4df523b3ef836040516106be91815260200190565b60405180910390a3505050565b60006020808352835180602085015260005b818110156106f9578581018301518582016040015282016106dd565b506000604082860101526040601f19601f8301168501019250505092915050565b80356001600160a01b038116811461073157600080fd5b919050565b6000806040838503121561074957600080fd5b6107528361071a565b946020939093013593505050565b60008060006060848603121561077557600080fd5b61077e8461071a565b925061078c6020850161071a565b9150604084013590509250925092565b6000602082840312156107ae57600080fd5b6107b78261071a565b9392505050565b600080604083850312156107d157600080fd5b6107da8361071a565b91506107e86020840161071a565b90509250929050565b600181811c9082168061080557607f821691505b60208210810361082557634e487b7160e01b600052602260045260246000fd5b50919050565b808201808211156102d057634e487b7160e01b600052601160045260246000fdfea2646970667358221220bc40334a4f2a5aa8e249a3184acae8a20fdf7aa48f9f9fce373a20ca59a5eb7764736f6c63430008180033","linkReferences":{}},"methodIdentifiers":{"Owner()":"b4a99a4e","YBTokenAddress()":"6e77449f","allowance(address,address)":"dd62ed3e","approve(address,uint256)":"095ea7b3","balanceOf(address)":"70a08231","burn(address,uint256)":"9dc29fac","decimals()":"313ce567","mint(address,uint256)":"40c10f19","name()":"06fdde03","symbol()":"95d89b41","totalSupply()":"18160ddd","transfer(address,uint256)":"a9059cbb","transferFrom(address,address,uint256)":"23b872dd"},"id":12}