{"abi":[{"type":"function","name":"WETH9","inputs":[],"outputs":[{"name":"","type":"address","internalType":"address"}],"stateMutability":"view"},{"type":"function","name":"swapRouter","inputs":[],"outputs":[{"name":"","type":"address","internalType":"contract ISwapRouter"}],"stateMutability":"view"},{"type":"event","name":"Deposit","inputs":[{"name":"","type":"address","indexed":true,"internalType":"address"},{"name":"amount","type":"uint256","indexed":false,"internalType":"uint256"}],"anonymous":false},{"type":"event","name":"WithDrawPrincipal","inputs":[{"name":"","type":"address","indexed":true,"internalType":"address"},{"name":"amount","type":"uint256","indexed":false,"internalType":"uint256"}],"anonymous":false},{"type":"event","name":"WithdrawYield","inputs":[{"name":"","type":"address","indexed":true,"internalType":"address"},{"name":"amount","type":"uint256","indexed":false,"internalType":"uint256"}],"anonymous":false},{"type":"error","name":"insufficentAmount","inputs":[{"name":"user","type":"address","internalType":"address"}]}],"bytecode":{"object":"0x608080604052346100245761020561ffff19600054161760005560c9908161002a8239f35b600080fdfe6080806040526004361015601257600080fd5b600090813560e01c9081634aa4a4fc146063575063c31c9c0714603457600080fd5b3460605780600319360112606057602060405173e592427a0aece92de3edee1f18e0157c058615648152f35b80fd5b905034608f5781600319360112608f578073c02aaa39b223fe8d0a0e5c4f27ead9083c756cc260209252f35b5080fdfea2646970667358221220a3cedafa5ff6585b4a39d1bdc31fbc0c1ed23080927cf360d7532a5df2bae08464736f6c63430008180033","linkReferences":{}},"methodIdentifiers":{"WETH9()":"4aa4a4fc","swapRouter()":"c31c9c07"},"id":40}