{"abi":[{"type":"constructor","inputs":[{"name":"_name","type":"string","internalType":"string"},{"name":"_symbol","type":"string","internalType":"string"}],"stateMutability":"nonpayable"},{"type":"receive","stateMutability":"payable"},{"type":"function","name":"DepositEth","inputs":[{"name":"amount","type":"uint256","internalType":"uint256"},{"name":"receiver","type":"address","internalType":"address"}],"outputs":[{"name":"shares","type":"uint256","internalType":"uint256"}],"stateMutability":"payable"},{"type":"function","name":"Owner","inputs":[],"outputs":[{"name":"","type":"address","internalType":"address"}],"stateMutability":"view"},{"type":"function","name":"RedeemEth","inputs":[{"name":"shares","type":"uint256","internalType":"uint256"},{"name":"receiver","type":"address","internalType":"address"}],"outputs":[{"name":"","type":"uint256","internalType":"uint256"}],"stateMutability":"nonpayable"},{"type":"function","name":"allowance","inputs":[{"name":"owner","type":"address","internalType":"address"},{"name":"spender","type":"address","internalType":"address"}],"outputs":[{"name":"","type":"uint256","internalType":"uint256"}],"stateMutability":"view"},{"type":"function","name":"approve","inputs":[{"name":"spender","type":"address","internalType":"address"},{"name":"value","type":"uint256","internalType":"uint256"}],"outputs":[{"name":"","type":"bool","internalType":"bool"}],"stateMutability":"nonpayable"},{"type":"function","name":"asset","inputs":[],"outputs":[{"name":"","type":"address","internalType":"address"}],"stateMutability":"view"},{"type":"function","name":"balanceOf","inputs":[{"name":"account","type":"address","internalType":"address"}],"outputs":[{"name":"","type":"uint256","internalType":"uint256"}],"stateMutability":"view"},{"type":"function","name":"convertToAssets","inputs":[{"name":"shares","type":"uint256","internalType":"uint256"}],"outputs":[{"name":"","type":"uint256","internalType":"uint256"}],"stateMutability":"view"},{"type":"function","name":"convertToShares","inputs":[{"name":"assets","type":"uint256","internalType":"uint256"}],"outputs":[{"name":"","type":"uint256","internalType":"uint256"}],"stateMutability":"view"},{"type":"function","name":"decimals","inputs":[],"outputs":[{"name":"","type":"uint8","internalType":"uint8"}],"stateMutability":"view"},{"type":"function","name":"deposit","inputs":[{"name":"assets","type":"uint256","internalType":"uint256"},{"name":"receiver","type":"address","internalType":"address"}],"outputs":[{"name":"","type":"uint256","internalType":"uint256"}],"stateMutability":"nonpayable"},{"type":"function","name":"maxDeposit","inputs":[{"name":"","type":"address","internalType":"address"}],"outputs":[{"name":"","type":"uint256","internalType":"uint256"}],"stateMutability":"view"},{"type":"function","name":"maxMint","inputs":[{"name":"","type":"address","internalType":"address"}],"outputs":[{"name":"","type":"uint256","internalType":"uint256"}],"stateMutability":"view"},{"type":"function","name":"maxRedeem","inputs":[{"name":"owner","type":"address","internalType":"address"}],"outputs":[{"name":"","type":"uint256","internalType":"uint256"}],"stateMutability":"view"},{"type":"function","name":"maxWithdraw","inputs":[{"name":"owner","type":"address","internalType":"address"}],"outputs":[{"name":"","type":"uint256","internalType":"uint256"}],"stateMutability":"view"},{"type":"function","name":"mint","inputs":[{"name":"shares","type":"uint256","internalType":"uint256"},{"name":"receiver","type":"address","internalType":"address"}],"outputs":[{"name":"","type":"uint256","internalType":"uint256"}],"stateMutability":"nonpayable"},{"type":"function","name":"name","inputs":[],"outputs":[{"name":"","type":"string","internalType":"string"}],"stateMutability":"view"},{"type":"function","name":"previewDeposit","inputs":[{"name":"assets","type":"uint256","internalType":"uint256"}],"outputs":[{"name":"","type":"uint256","internalType":"uint256"}],"stateMutability":"view"},{"type":"function","name":"previewMint","inputs":[{"name":"shares","type":"uint256","internalType":"uint256"}],"outputs":[{"name":"","type":"uint256","internalType":"uint256"}],"stateMutability":"view"},{"type":"function","name":"previewRedeem","inputs":[{"name":"shares","type":"uint256","internalType":"uint256"}],"outputs":[{"name":"","type":"uint256","internalType":"uint256"}],"stateMutability":"view"},{"type":"function","name":"previewWithdraw","inputs":[{"name":"assets","type":"uint256","internalType":"uint256"}],"outputs":[{"name":"","type":"uint256","internalType":"uint256"}],"stateMutability":"view"},{"type":"function","name":"redeem","inputs":[{"name":"shares","type":"uint256","internalType":"uint256"},{"name":"receiver","type":"address","internalType":"address"},{"name":"owner","type":"address","internalType":"address"}],"outputs":[{"name":"","type":"uint256","internalType":"uint256"}],"stateMutability":"nonpayable"},{"type":"function","name":"setOwner","inputs":[{"name":"newOwner","type":"address","internalType":"address"}],"outputs":[],"stateMutability":"nonpayable"},{"type":"function","name":"setYieldFi","inputs":[{"name":"_yf","type":"address","internalType":"address"}],"outputs":[],"stateMutability":"nonpayable"},{"type":"function","name":"symbol","inputs":[],"outputs":[{"name":"","type":"string","internalType":"string"}],"stateMutability":"view"},{"type":"function","name":"totalAssets","inputs":[],"outputs":[{"name":"","type":"uint256","internalType":"uint256"}],"stateMutability":"view"},{"type":"function","name":"totalSupply","inputs":[],"outputs":[{"name":"","type":"uint256","internalType":"uint256"}],"stateMutability":"view"},{"type":"function","name":"transfer","inputs":[{"name":"to","type":"address","internalType":"address"},{"name":"value","type":"uint256","internalType":"uint256"}],"outputs":[{"name":"","type":"bool","internalType":"bool"}],"stateMutability":"nonpayable"},{"type":"function","name":"transferETH","inputs":[{"name":"assets","type":"uint256","internalType":"uint256"},{"name":"receiver","type":"address","internalType":"address"}],"outputs":[{"name":"","type":"bool","internalType":"bool"}],"stateMutability":"nonpayable"},{"type":"function","name":"transferFrom","inputs":[{"name":"from","type":"address","internalType":"address"},{"name":"to","type":"address","internalType":"address"},{"name":"value","type":"uint256","internalType":"uint256"}],"outputs":[{"name":"","type":"bool","internalType":"bool"}],"stateMutability":"nonpayable"},{"type":"function","name":"withdraw","inputs":[{"name":"assets","type":"uint256","internalType":"uint256"},{"name":"receiver","type":"address","internalType":"address"},{"name":"owner","type":"address","internalType":"address"}],"outputs":[{"name":"","type":"uint256","internalType":"uint256"}],"stateMutability":"nonpayable"},{"type":"function","name":"withdrawEth","inputs":[{"name":"amount","type":"uint256","internalType":"uint256"},{"name":"receiver","type":"address","internalType":"address"}],"outputs":[{"name":"","type":"uint256","internalType":"uint256"}],"stateMutability":"nonpayable"},{"type":"function","name":"yieldiFi","inputs":[],"outputs":[{"name":"","type":"address","internalType":"address"}],"stateMutability":"view"},{"type":"event","name":"Approval","inputs":[{"name":"owner","type":"address","indexed":true,"internalType":"address"},{"name":"spender","type":"address","indexed":true,"internalType":"address"},{"name":"value","type":"uint256","indexed":false,"internalType":"uint256"}],"anonymous":false},{"type":"event","name":"Deposit","inputs":[{"name":"sender","type":"address","indexed":true,"internalType":"address"},{"name":"owner","type":"address","indexed":true,"internalType":"address"},{"name":"assets","type":"uint256","indexed":false,"internalType":"uint256"},{"name":"shares","type":"uint256","indexed":false,"internalType":"uint256"}],"anonymous":false},{"type":"event","name":"Transfer","inputs":[{"name":"from","type":"address","indexed":true,"internalType":"address"},{"name":"to","type":"address","indexed":true,"internalType":"address"},{"name":"value","type":"uint256","indexed":false,"internalType":"uint256"}],"anonymous":false},{"type":"event","name":"Withdraw","inputs":[{"name":"sender","type":"address","indexed":true,"internalType":"address"},{"name":"receiver","type":"address","indexed":true,"internalType":"address"},{"name":"owner","type":"address","indexed":true,"internalType":"address"},{"name":"assets","type":"uint256","indexed":false,"internalType":"uint256"},{"name":"shares","type":"uint256","indexed":false,"internalType":"uint256"}],"anonymous":false},{"type":"error","name":"ERC20InsufficientAllowance","inputs":[{"name":"spender","type":"address","internalType":"address"},{"name":"allowance","type":"uint256","internalType":"uint256"},{"name":"needed","type":"uint256","internalType":"uint256"}]},{"type":"error","name":"ERC20InsufficientBalance","inputs":[{"name":"sender","type":"address","internalType":"address"},{"name":"balance","type":"uint256","internalType":"uint256"},{"name":"needed","type":"uint256","internalType":"uint256"}]},{"type":"error","name":"ERC20InvalidApprover","inputs":[{"name":"approver","type":"address","internalType":"address"}]},{"type":"error","name":"ERC20InvalidReceiver","inputs":[{"name":"receiver","type":"address","internalType":"address"}]},{"type":"error","name":"ERC20InvalidSender","inputs":[{"name":"sender","type":"address","internalType":"address"}]},{"type":"error","name":"ERC20InvalidSpender","inputs":[{"name":"spender","type":"address","internalType":"address"}]},{"type":"error","name":"ERC4626ExceededMaxDeposit","inputs":[{"name":"receiver","type":"address","internalType":"address"},{"name":"assets","type":"uint256","internalType":"uint256"},{"name":"max","type":"uint256","internalType":"uint256"}]},{"type":"error","name":"ERC4626ExceededMaxMint","inputs":[{"name":"receiver","type":"address","internalType":"address"},{"name":"shares","type":"uint256","internalType":"uint256"},{"name":"max","type":"uint256","internalType":"uint256"}]},{"type":"error","name":"ERC4626ExceededMaxRedeem","inputs":[{"name":"owner","type":"address","internalType":"address"},{"name":"shares","type":"uint256","internalType":"uint256"},{"name":"max","type":"uint256","internalType":"uint256"}]},{"type":"error","name":"ERC4626ExceededMaxWithdraw","inputs":[{"name":"owner","type":"address","internalType":"address"},{"name":"assets","type":"uint256","internalType":"uint256"},{"name":"max","type":"uint256","internalType":"uint256"}]},{"type":"error","name":"MathOverflowedMulDiv","inputs":[]}],"bytecode":{"object":"0x60c080604052346200036657620015f080380380916200002082856200036b565b8339810190604081830312620003665780516001600160401b039081811162000366578362000051918401620003ab565b916020938482015183811162000366576200006d9201620003ab565b825182811162000266576003918254916001958684811c941680156200035b575b8885101462000345578190601f94858111620002ef575b50889085831160011462000288576000926200027c575b505060001982861b1c191690861b1783555b8051938411620002665760049586548681811c911680156200025b575b828210146200024657838111620001fb575b50809285116001146200018d575093839491849260009562000181575b50501b92600019911b1c19161790555b6200013462000416565b901562000178575b60a0526000608052600580546001600160a01b0319163317905560405161111e9081620004d2823960805181610764015260a051816107aa0152f35b5060126200013c565b0151935038806200011a565b92919084601f1981168860005285600020956000905b89838310620001e05750505010620001c5575b50505050811b0190556200012a565b01519060f884600019921b161c1916905538808080620001b6565b858701518955909701969485019488935090810190620001a3565b87600052816000208480880160051c8201928489106200023c575b0160051c019087905b8281106200022f575050620000fd565b600081550187906200021f565b9250819262000216565b602288634e487b7160e01b6000525260246000fd5b90607f1690620000eb565b634e487b7160e01b600052604160045260246000fd5b015190503880620000bc565b90889350601f19831691876000528a6000209260005b8c828210620002d85750508411620002bf575b505050811b018355620000ce565b015160001983881b60f8161c19169055388080620002b1565b8385015186558c979095019493840193016200029e565b90915085600052886000208580850160051c8201928b86106200033b575b918a91869594930160051c01915b8281106200032b575050620000a5565b600081558594508a91016200031b565b925081926200030d565b634e487b7160e01b600052602260045260246000fd5b93607f16936200008e565b600080fd5b601f909101601f19168101906001600160401b038211908210176200026657604052565b6001600160401b0381116200026657601f01601f191660200190565b9080601f830112156200036657815190620003c6826200038f565b92620003d660405194856200036b565b82845260209160208483010111620003665760005b838110620004025750505060206000918301015290565b8181018301518582018401528201620003eb565b6040805163313ce56760e01b6020820190815260048252929181016001600160401b0381118282101762000266576040526000809381925190825afa3d15620004c8573d9062000466826200038f565b916200047660405193846200036b565b82523d84602084013e5b80620004bb575b62000492575b508190565b602081805181010312620004b7576020015160ff81116200048d576001925060ff1690565b8280fd5b5060208151101562000487565b6060906200048056fe6080604081815260049081361015610022575b505050361561002057600080fd5b005b600092833560e01c90816301e1d11414610b235750806306fdde0314610a4657806307a2d13a1461074a578063095ea7b31461099c5780630a28a4771461097c57806313af4035146108f757806318160ddd146108d857806323b872dd1461089b578063254532f2146107f0578063313ce5671461079357806338d52e0f1461074f578063402d267d146102db5780634cdad5061461074a578381636e07c470146106e1575080636e553f65146106b957806370a082311461025f57806387c7486d1461066e57806394bf804d146105fb57806395d89b41146104d9578063a158657c146104a1578063a9059cbb14610470578063b3d7f6b914610450578063b460af94146103c0578063b4a99a4e14610397578063ba08765214610309578063bbf2f373146102e0578063c63d75b6146102db578063c6e6f5921461020d578063ce96cb77146102a2578063d905777e1461025f578063dd62ed3e14610212578063ef8b30f71461020d5763f014d73b036100125734610209578281600319360112610206578080806101ce95356101b9610bc7565b6101c282610c9f565b97889283338433610f1d565b829082156101fc575b6001600160a01b031690f1156101f1576020925051908152f35b51913d9150823e3d90fd5b6108fc91506101d7565b80fd5b8280fd5b610c38565b83823461025b578060031936011261025b5780602092610230610bb1565b610238610bc7565b6001600160a01b0391821683526001865283832091168252845220549051908152f35b5080fd5b83823461025b57602036600319011261025b5760209061029b610280610bb1565b6001600160a01b031660009081526020819052604090205490565b9051908152f35b83823461025b57602036600319011261025b5760209161029b9082906001600160a01b036102ce610bb1565b1681528085522054610c9f565b610bdd565b83823461025b578160031936011261025b5760065490516001600160a01b039091168152602090f35b508234610206575061031a36610c03565b92919361033a8460018060a01b0316600052600060205260406000205490565b8086116103625750508361035c91610353602096610c9f565b94859133610f1d565b51908152f35b9251632e52afbb60e21b81526001600160a01b0390941690840190815260208101949094525060408301529081906060010390fd5b83823461025b578160031936011261025b5760055490516001600160a01b039091168152602090f35b50823461020657506103d136610c03565b9291936103f96103f48560018060a01b0316600052600060205260406000205490565b610c9f565b80861161041b57505061035c9084610412602096610cc3565b94859233610f1d565b9251633fa733bb60e21b81526001600160a01b0390941690840190815260208101949094525060408301529081906060010390fd5b508234610206576020366003190112610206575061029b60209235610c56565b83823461025b578060031936011261025b5760209061049a610490610bb1565b6024359033610dde565b5160018152f35b5090346102095781600319360112610209573590828080806104c1610bc7565b956104cb81610cc3565b966101ce8883338433610f1d565b5082903461025b578160031936011261025b5780519082845460018160011c90600183169283156105f1575b60209384841081146105de578388529081156105c2575060011461056d575b505050829003601f01601f191682019267ffffffffffffffff84118385101761055a5750829182610556925282610b3d565b0390f35b634e487b7160e01b815260418552602490fd5b8787529192508591837f8a35acfbc15ff81a39ae7d344fd709f28e8600b4aa8c65c6b64bfe7fe36bd19b5b8385106105ae5750505050830101858080610524565b805488860183015293019284908201610598565b60ff1916878501525050151560051b8401019050858080610524565b634e487b7160e01b895260228a52602489fd5b91607f1691610505565b50903461020957816003193601126102095760209250359061061b610bc7565b9161062581610c56565b926106308282610ebc565b8251918483528583015260018060a01b0316907fdcbc1c05240f31ff3ad067ef1ee35ce4997762752e3a095284754544f4c709d7833392a351908152f35b833461020657602036600319011261020657610688610bb1565b6005546001600160a01b0391908216330361020957166bffffffffffffffffffffffff60a01b600654161760065580f35b5082346102065781600319360112610206575061029b6020926106da610bc7565b5035610ce7565b8281853461025b578260031936011261025b57356106fd610bc7565b6006546001600160a01b039081163303610746578392839283928391831561073c575b1690f115610732576020905160018152f35b51903d90823e3d90fd5b6108fc9250610720565b8380fd5b610b86565b83823461025b578160031936011261025b57517f00000000000000000000000000000000000000000000000000000000000000006001600160a01b03168152602090f35b5082903461025b578160031936011261025b5760ff7f0000000000000000000000000000000000000000000000000000000000000000169160ff83116107dd576020838351908152f35b634e487b7160e01b815260118452602490fd5b50918260031936011261020657508035610808610bc7565b9181341061086b5750918261081e602094610ce7565b926108298482610ebc565b82519182528482018490526001600160a01b03169033907fdcbc1c05240f31ff3ad067ef1ee35ce4997762752e3a095284754544f4c709d7908490a351908152f35b606490602085519162461bcd60e51b8352820152600a6024820152690dcdee840cadcdeeaced60b31b6044820152fd5b83823461025b57606036600319011261025b5760209061049a6108bc610bb1565b6108c4610bc7565b604435916108d3833383610d0b565b610dde565b83823461025b578160031936011261025b576020906002549051908152f35b503461020957602036600319011261020957610911610bb1565b600554926001600160a01b0392838516330361094357505016906bffffffffffffffffffffffff60a01b161760055580f35b906020606492519162461bcd60e51b8352820152601360248201527239b2b73232b91034b9903737ba1037bbb732b960691b6044820152fd5b508234610206576020366003190112610206575061029b60209235610cc3565b5090346102095781600319360112610209576109b6610bb1565b602435903315610a2f576001600160a01b0316918215610a1857508083602095338152600187528181208582528752205582519081527f8c5be1e5ebec7d5bd14f71427d1e84f3dd0314c0f7b2291e5b200ac8c7c3b925843392a35160018152f35b8351634a1406b160e11b8152908101859052602490fd5b835163e602df0560e01b8152808401869052602490fd5b5082903461025b578160031936011261025b578051908260035460018160011c9060018316928315610b19575b60209384841081146105de578388529081156105c25750600114610ac357505050829003601f01601f191682019267ffffffffffffffff84118385101761055a5750829182610556925282610b3d565b600387529192508591837fc2575a0e9e593c00f959f8c92f12db2869c3395a3b0502d05e2516446f71f85b5b838510610b055750505050830101858080610524565b805488860183015293019284908201610aef565b91607f1691610a73565b84903461025b578160031936011261025b57602090478152f35b6020808252825181830181905290939260005b828110610b7257505060409293506000838284010152601f8019910116010190565b818101860151848201604001528501610b50565b34610bac576020366003190112610bac576020610ba4600435610c9f565b604051908152f35b600080fd5b600435906001600160a01b0382168203610bac57565b602435906001600160a01b0382168203610bac57565b34610bac576020366003190112610bac57610bf6610bb1565b5060206040516000198152f35b6060906003190112610bac57600435906001600160a01b03906024358281168103610bac57916044359081168103610bac5790565b34610bac576020366003190112610bac576020610ba4600435610ce7565b4760018101809111610c89576002549060018201809211610c8957610c7a92611012565b6127108101809111610c895790565b634e487b7160e01b600052601160045260246000fd5b4760018101809111610c89576002549060018201809211610c8957610c7a92611052565b60025460018101809111610c8957479060018201809211610c8957610c7a92611012565b60025460018101809111610c8957479060018201809211610c8957610c7a92611052565b9160018060a01b038093169160009383855260016020526040938486209183169182875260205284862054926000198403610d4a575b50505050505050565b848410610dae57508015610d96578115610d7e57855260016020528385209085526020520391205538808080808080610d41565b8451634a1406b160e11b815260048101879052602490fd5b845163e602df0560e01b815260048101879052602490fd5b8551637dc7a0d960e11b81526001600160a01b039190911660048201526024810184905260448101859052606490fd5b916001600160a01b03808416928315610ea35716928315610e8a5760009083825281602052604082205490838210610e58575091604082827fddf252ad1be2c89b69c2b068fc378daa952ba7f163c4a11628f55a4df523b3ef958760209652828652038282205586815220818154019055604051908152a3565b60405163391434e360e21b81526001600160a01b03919091166004820152602481019190915260448101839052606490fd5b60405163ec442f0560e01b815260006004820152602490fd5b604051634b637e8f60e11b815260006004820152602490fd5b6001600160a01b0316908115610e8a5760025490808201809211610c895760207fddf252ad1be2c89b69c2b068fc378daa952ba7f163c4a11628f55a4df523b3ef9160009360025584845283825260408420818154019055604051908152a3565b9194936001600160a01b038087169493818116939083878603611001575b50508515610ea357600092868452836020526040938481205499828b10610fd157508188999a7ffbde797d201c681b91056529119e0b02407c7bb96a4a2c75c01fc9667232c8db97989983528260205203858220558160025403600255887fddf252ad1be2c89b69c2b068fc378daa952ba7f163c4a11628f55a4df523b3ef60208751858152a3835196875260208701521693a4565b855163391434e360e21b81526001600160a01b03919091166004820152602481018b905260448101839052606490fd5b61100b918a610d0b565b3883610f3b565b919061101f828285611052565b92821561103c570961102e5790565b60018101809111610c895790565b634e487b7160e01b600052601260045260246000fd5b909182820291600019848209938380861095039480860395146110da57848311156110c85782910981600003821680920460028082600302188083028203028083028203028083028203028083028203028083028203028092029003029360018380600003040190848311900302920304170290565b60405163227bc15360e01b8152600490fd5b50508092501561103c57049056fea26469706673582212205494219ee243fd26375f6e2d68019010d7c6896618cb9d07582c6be490cd910764736f6c63430008180033","linkReferences":{}},"methodIdentifiers":{"DepositEth(uint256,address)":"254532f2","Owner()":"b4a99a4e","RedeemEth(uint256,address)":"f014d73b","allowance(address,address)":"dd62ed3e","approve(address,uint256)":"095ea7b3","asset()":"38d52e0f","balanceOf(address)":"70a08231","convertToAssets(uint256)":"07a2d13a","convertToShares(uint256)":"c6e6f592","decimals()":"313ce567","deposit(uint256,address)":"6e553f65","maxDeposit(address)":"402d267d","maxMint(address)":"c63d75b6","maxRedeem(address)":"d905777e","maxWithdraw(address)":"ce96cb77","mint(uint256,address)":"94bf804d","name()":"06fdde03","previewDeposit(uint256)":"ef8b30f7","previewMint(uint256)":"b3d7f6b9","previewRedeem(uint256)":"4cdad506","previewWithdraw(uint256)":"0a28a477","redeem(uint256,address,address)":"ba087652","setOwner(address)":"13af4035","setYieldFi(address)":"87c7486d","symbol()":"95d89b41","totalAssets()":"01e1d114","totalSupply()":"18160ddd","transfer(address,uint256)":"a9059cbb","transferETH(uint256,address)":"6e07c470","transferFrom(address,address,uint256)":"23b872dd","withdraw(uint256,address,address)":"b460af94","withdrawEth(uint256,address)":"a158657c","yieldiFi()":"bbf2f373"},"id":43}