{"abi":[{"type":"constructor","inputs":[{"name":"name_","type":"string","internalType":"string"},{"name":"symbol_","type":"string","internalType":"string"},{"name":"YBAddress","type":"address","internalType":"address"}],"stateMutability":"nonpayable"},{"type":"function","name":"Owner","inputs":[],"outputs":[{"name":"","type":"address","internalType":"address"}],"stateMutability":"view"},{"type":"function","name":"YBTokenAddress","inputs":[],"outputs":[{"name":"","type":"address","internalType":"address"}],"stateMutability":"view"},{"type":"function","name":"allowance","inputs":[{"name":"owner","type":"address","internalType":"address"},{"name":"spender","type":"address","internalType":"address"}],"outputs":[{"name":"","type":"uint256","internalType":"uint256"}],"stateMutability":"view"},{"type":"function","name":"approve","inputs":[{"name":"spender","type":"address","internalType":"address"},{"name":"value","type":"uint256","internalType":"uint256"}],"outputs":[{"name":"","type":"bool","internalType":"bool"}],"stateMutability":"nonpayable"},{"type":"function","name":"balanceOf","inputs":[{"name":"account","type":"address","internalType":"address"}],"outputs":[{"name":"","type":"uint256","internalType":"uint256"}],"stateMutability":"view"},{"type":"function","name":"burn","inputs":[{"name":"user","type":"address","internalType":"address"},{"name":"amount","type":"uint256","internalType":"uint256"}],"outputs":[{"name":"","type":"bool","internalType":"bool"}],"stateMutability":"nonpayable"},{"type":"function","name":"decimals","inputs":[],"outputs":[{"name":"","type":"uint8","internalType":"uint8"}],"stateMutability":"view"},{"type":"function","name":"mint","inputs":[{"name":"user","type":"address","internalType":"address"},{"name":"amount","type":"uint256","internalType":"uint256"}],"outputs":[{"name":"","type":"bool","internalType":"bool"}],"stateMutability":"nonpayable"},{"type":"function","name":"name","inputs":[],"outputs":[{"name":"","type":"string","internalType":"string"}],"stateMutability":"view"},{"type":"function","name":"symbol","inputs":[],"outputs":[{"name":"","type":"string","internalType":"string"}],"stateMutability":"view"},{"type":"function","name":"totalSupply","inputs":[],"outputs":[{"name":"","type":"uint256","internalType":"uint256"}],"stateMutability":"view"},{"type":"function","name":"transfer","inputs":[{"name":"to","type":"address","internalType":"address"},{"name":"value","type":"uint256","internalType":"uint256"}],"outputs":[{"name":"","type":"bool","internalType":"bool"}],"stateMutability":"nonpayable"},{"type":"function","name":"transferFrom","inputs":[{"name":"from","type":"address","internalType":"address"},{"name":"to","type":"address","internalType":"address"},{"name":"value","type":"uint256","internalType":"uint256"}],"outputs":[{"name":"","type":"bool","internalType":"bool"}],"stateMutability":"nonpayable"},{"type":"event","name":"Approval","inputs":[{"name":"owner","type":"address","indexed":true,"internalType":"address"},{"name":"spender","type":"address","indexed":true,"internalType":"address"},{"name":"value","type":"uint256","indexed":false,"internalType":"uint256"}],"anonymous":false},{"type":"event","name":"Transfer","inputs":[{"name":"from","type":"address","indexed":true,"internalType":"address"},{"name":"to","type":"address","indexed":true,"internalType":"address"},{"name":"value","type":"uint256","indexed":false,"internalType":"uint256"}],"anonymous":false},{"type":"error","name":"ERC20InsufficientAllowance","inputs":[{"name":"spender","type":"address","internalType":"address"},{"name":"allowance","type":"uint256","internalType":"uint256"},{"name":"needed","type":"uint256","internalType":"uint256"}]},{"type":"error","name":"ERC20InsufficientBalance","inputs":[{"name":"sender","type":"address","internalType":"address"},{"name":"balance","type":"uint256","internalType":"uint256"},{"name":"needed","type":"uint256","internalType":"uint256"}]},{"type":"error","name":"ERC20InvalidApprover","inputs":[{"name":"approver","type":"address","internalType":"address"}]},{"type":"error","name":"ERC20InvalidReceiver","inputs":[{"name":"receiver","type":"address","internalType":"address"}]},{"type":"error","name":"ERC20InvalidSender","inputs":[{"name":"sender","type":"address","internalType":"address"}]},{"type":"error","name":"ERC20InvalidSpender","inputs":[{"name":"spender","type":"address","internalType":"address"}]}],"bytecode":{"object":"0x608060405234620003515762000cb1803803806200001d8162000356565b9283398101606082820312620003515781516001600160401b03908181116200035157826200004e9185016200037c565b906020928385015182811162000351576040916200006e9187016200037c565b9401516001600160a01b03811694908590036200035157825182811162000251576003918254916001958684811c9416801562000346575b8885101462000330578190601f94858111620002da575b508890858311600114620002735760009262000267575b505060001982861b1c191690861b1783555b8051938411620002515760049586548681811c9116801562000246575b828210146200023157838111620001e6575b50809285116001146200017857509383949184926000956200016c575b50501b92600019911b1c19161790555b60018060a01b03193381600554161760055560065416176006556040516108c29081620003ef8239f35b01519350388062000132565b92919084601f1981168860005285600020956000905b89838310620001cb5750505010620001b0575b50505050811b01905562000142565b01519060f884600019921b161c1916905538808080620001a1565b8587015189559097019694850194889350908101906200018e565b87600052816000208480880160051c82019284891062000227575b0160051c019087905b8281106200021a57505062000115565b600081550187906200020a565b9250819262000201565b602288634e487b7160e01b6000525260246000fd5b90607f169062000103565b634e487b7160e01b600052604160045260246000fd5b015190503880620000d4565b90889350601f19831691876000528a6000209260005b8c828210620002c35750508411620002aa575b505050811b018355620000e6565b015160001983881b60f8161c191690553880806200029c565b8385015186558c9790950194938401930162000289565b90915085600052886000208580850160051c8201928b861062000326575b918a91869594930160051c01915b82811062000316575050620000bd565b600081558594508a910162000306565b92508192620002f8565b634e487b7160e01b600052602260045260246000fd5b93607f1693620000a6565b600080fd5b6040519190601f01601f191682016001600160401b038111838210176200025157604052565b919080601f84011215620003515782516001600160401b0381116200025157602090620003b2601f8201601f1916830162000356565b92818452828287010111620003515760005b818110620003da57508260009394955001015290565b8581018301518482018401528201620003c456fe608060408181526004918236101561001657600080fd5b600092833560e01c91826306fdde031461065a57508163095ea7b3146105b057816318160ddd1461059157816323b872dd1461049d578163313ce5671461048157816340c10f19146103c45781636e77449f1461039b57816370a082311461036457816395d89b41146102435781639dc29fac1461015757508063a9059cbb14610127578063b4a99a4e146100ff5763dd62ed3e146100b457600080fd5b346100fb57806003193601126100fb57806020926100d061077d565b6100d8610798565b6001600160a01b0391821683526001865283832091168252845220549051908152f35b5080fd5b50346100fb57816003193601126100fb5760055490516001600160a01b039091168152602090f35b50346100fb57806003193601126100fb5760209061015061014661077d565b60243590336107ae565b5160018152f35b82843461024057816003193601126102405761017161077d565b6005549093602435916001600160a01b03908116330361023c578516948515610225578584528360205284842054918383106101f157505060208286937fddf252ad1be2c89b69c2b068fc378daa952ba7f163c4a11628f55a4df523b3ef9383988752868452038686205580600254036002558551908152a35160018152f35b855163391434e360e21b81526001600160a01b03909216908201908152602081018390526040810184905281906060010390fd5b8451634b637e8f60e11b8152808301859052602490fd5b8380fd5b80fd5b8383346100fb57816003193601126100fb5780519082845460018160011c906001831692831561035a575b60209384841081146103475783885290811561032b57506001146102d6575b505050829003601f01601f191682019267ffffffffffffffff8411838510176102c357508291826102bf925282610734565b0390f35b634e487b7160e01b815260418552602490fd5b8787529192508591837f8a35acfbc15ff81a39ae7d344fd709f28e8600b4aa8c65c6b64bfe7fe36bd19b5b838510610317575050505083010185808061028d565b805488860183015293019284908201610301565b60ff1916878501525050151560051b840101905085808061028d565b634e487b7160e01b895260228a52602489fd5b91607f169161026e565b5050346100fb5760203660031901126100fb5760209181906001600160a01b0361038c61077d565b16815280845220549051908152f35b5050346100fb57816003193601126100fb5760065490516001600160a01b039091168152602090f35b8284346102405781600319360112610240576103de61077d565b60055460243592916001600160a01b03918216330361047d57169182156104665760025481810180911161045357602095507fddf252ad1be2c89b69c2b068fc378daa952ba7f163c4a11628f55a4df523b3ef9186916002558484528382528584208181540190558551908152a35160018152f35b634e487b7160e01b835260118652602483fd5b835163ec442f0560e01b8152808601839052602490fd5b8280fd5b5050346100fb57816003193601126100fb576020905160128152f35b90508234610240576060366003190112610240576104b961077d565b6104c1610798565b916044359360018060a01b0383168083526001602052868320338452602052868320549160001983036104fd575b6020886101508989896107ae565b86831061056557811561054e57331561053757508252600160209081528683203384528152918690209085900390558290610150876104ef565b8751634a1406b160e11b8152908101849052602490fd5b875163e602df0560e01b8152908101849052602490fd5b8751637dc7a0d960e11b8152339181019182526020820193909352604081018790528291506060010390fd5b5050346100fb57816003193601126100fb576020906002549051908152f35b90503461047d578160031936011261047d576105ca61077d565b602435903315610643576001600160a01b031691821561062c57508083602095338152600187528181208582528752205582519081527f8c5be1e5ebec7d5bd14f71427d1e84f3dd0314c0f7b2291e5b200ac8c7c3b925843392a35160018152f35b8351634a1406b160e11b8152908101859052602490fd5b835163e602df0560e01b8152808401869052602490fd5b8490843461047d578260031936011261047d578260035460018160011c906001831692831561072a575b60209384841081146103475783885290811561032b57506001146106d457505050829003601f01601f191682019267ffffffffffffffff8411838510176102c357508291826102bf925282610734565b600387529192508591837fc2575a0e9e593c00f959f8c92f12db2869c3395a3b0502d05e2516446f71f85b5b838510610716575050505083010185808061028d565b805488860183015293019284908201610700565b91607f1691610684565b6020808252825181830181905290939260005b82811061076957505060409293506000838284010152601f8019910116010190565b818101860151848201604001528501610747565b600435906001600160a01b038216820361079357565b600080fd5b602435906001600160a01b038216820361079357565b916001600160a01b03808416928315610873571692831561085a5760009083825281602052604082205490838210610828575091604082827fddf252ad1be2c89b69c2b068fc378daa952ba7f163c4a11628f55a4df523b3ef958760209652828652038282205586815220818154019055604051908152a3565b60405163391434e360e21b81526001600160a01b03919091166004820152602481019190915260448101839052606490fd5b60405163ec442f0560e01b815260006004820152602490fd5b604051634b637e8f60e11b815260006004820152602490fdfea26469706673582212206211d93dd6981b9a28c540141fcbd27fac624076e9f31d5ad825db67452040c764736f6c63430008180033","linkReferences":{}},"methodIdentifiers":{"Owner()":"b4a99a4e","YBTokenAddress()":"6e77449f","allowance(address,address)":"dd62ed3e","approve(address,uint256)":"095ea7b3","balanceOf(address)":"70a08231","burn(address,uint256)":"9dc29fac","decimals()":"313ce567","mint(address,uint256)":"40c10f19","name()":"06fdde03","symbol()":"95d89b41","totalSupply()":"18160ddd","transfer(address,uint256)":"a9059cbb","transferFrom(address,address,uint256)":"23b872dd"},"id":41}